{
  "contractName": "ACBF",
  "abi": [
    {
      "inputs": [],
      "stateMutability": "nonpayable",
      "type": "constructor"
    },
    {
      "inputs": [
        {
          "internalType": "uint256",
          "name": "index",
          "type": "uint256"
        }
      ],
      "name": "getPolicy",
      "outputs": [
        {
          "components": [
            {
              "components": [
                {
                  "internalType": "string",
                  "name": "id",
                  "type": "string"
                },
                {
                  "components": [
                    {
                      "internalType": "string",
                      "name": "name",
                      "type": "string"
                    },
                    {
                      "internalType": "string",
                      "name": "role",
                      "type": "string"
                    }
                  ],
                  "internalType": "struct Base.SubjectAttribute",
                  "name": "attribute",
                  "type": "tuple"
                }
              ],
              "internalType": "struct Base.Subject",
              "name": "subject",
              "type": "tuple"
            },
            {
              "components": [
                {
                  "internalType": "string",
                  "name": "id",
                  "type": "string"
                },
                {
                  "components": [
                    {
                      "internalType": "string",
                      "name": "name",
                      "type": "string"
                    },
                    {
                      "internalType": "string",
                      "name": "place",
                      "type": "string"
                    }
                  ],
                  "internalType": "struct Base.ObjectAttribute",
                  "name": "attribute",
                  "type": "tuple"
                }
              ],
              "internalType": "struct Base.Object",
              "name": "object",
              "type": "tuple"
            },
            {
              "components": [
                {
                  "internalType": "bool",
                  "name": "write",
                  "type": "bool"
                },
                {
                  "internalType": "bool",
                  "name": "read",
                  "type": "bool"
                },
                {
                  "internalType": "bool",
                  "name": "execute",
                  "type": "bool"
                }
              ],
              "internalType": "struct Base.Action",
              "name": "action",
              "type": "tuple"
            },
            {
              "components": [
                {
                  "internalType": "uint256",
                  "name": "start",
                  "type": "uint256"
                },
                {
                  "internalType": "uint256",
                  "name": "end",
                  "type": "uint256"
                }
              ],
              "internalType": "struct Base.Context",
              "name": "context",
              "type": "tuple"
            }
          ],
          "internalType": "struct Base.Policy",
          "name": "",
          "type": "tuple"
        }
      ],
      "stateMutability": "view",
      "type": "function"
    },
    {
      "inputs": [],
      "name": "getFilter",
      "outputs": [
        {
          "components": [
            {
              "internalType": "uint256[]",
              "name": "filter",
              "type": "uint256[]"
            },
            {
              "components": [
                {
                  "internalType": "uint256",
                  "name": "count",
                  "type": "uint256"
                },
                {
                  "internalType": "bool",
                  "name": "subjectName",
                  "type": "bool"
                },
                {
                  "internalType": "bool",
                  "name": "role",
                  "type": "bool"
                },
                {
                  "internalType": "bool",
                  "name": "objectName",
                  "type": "bool"
                },
                {
                  "internalType": "bool",
                  "name": "place",
                  "type": "bool"
                }
              ],
              "internalType": "struct BloomFilterMatch.MatchPolicy[]",
              "name": "matchPolicies",
              "type": "tuple[]"
            },
            {
              "internalType": "uint256",
              "name": "size",
              "type": "uint256"
            },
            {
              "internalType": "uint256",
              "name": "numberOfHashFunctions",
              "type": "uint256"
            }
          ],
          "internalType": "struct BloomFilterMatch.Filter",
          "name": "",
          "type": "tuple"
        }
      ],
      "stateMutability": "view",
      "type": "function"
    },
    {
      "inputs": [],
      "name": "getPolicies",
      "outputs": [
        {
          "components": [
            {
              "components": [
                {
                  "internalType": "string",
                  "name": "id",
                  "type": "string"
                },
                {
                  "components": [
                    {
                      "internalType": "string",
                      "name": "name",
                      "type": "string"
                    },
                    {
                      "internalType": "string",
                      "name": "role",
                      "type": "string"
                    }
                  ],
                  "internalType": "struct Base.SubjectAttribute",
                  "name": "attribute",
                  "type": "tuple"
                }
              ],
              "internalType": "struct Base.Subject",
              "name": "subject",
              "type": "tuple"
            },
            {
              "components": [
                {
                  "internalType": "string",
                  "name": "id",
                  "type": "string"
                },
                {
                  "components": [
                    {
                      "internalType": "string",
                      "name": "name",
                      "type": "string"
                    },
                    {
                      "internalType": "string",
                      "name": "place",
                      "type": "string"
                    }
                  ],
                  "internalType": "struct Base.ObjectAttribute",
                  "name": "attribute",
                  "type": "tuple"
                }
              ],
              "internalType": "struct Base.Object",
              "name": "object",
              "type": "tuple"
            },
            {
              "components": [
                {
                  "internalType": "bool",
                  "name": "write",
                  "type": "bool"
                },
                {
                  "internalType": "bool",
                  "name": "read",
                  "type": "bool"
                },
                {
                  "internalType": "bool",
                  "name": "execute",
                  "type": "bool"
                }
              ],
              "internalType": "struct Base.Action",
              "name": "action",
              "type": "tuple"
            },
            {
              "components": [
                {
                  "internalType": "uint256",
                  "name": "start",
                  "type": "uint256"
                },
                {
                  "internalType": "uint256",
                  "name": "end",
                  "type": "uint256"
                }
              ],
              "internalType": "struct Base.Context",
              "name": "context",
              "type": "tuple"
            }
          ],
          "internalType": "struct Base.Policy[]",
          "name": "",
          "type": "tuple[]"
        }
      ],
      "stateMutability": "view",
      "type": "function"
    },
    {
      "inputs": [
        {
          "internalType": "string",
          "name": "subjectName",
          "type": "string"
        },
        {
          "internalType": "string",
          "name": "role",
          "type": "string"
        },
        {
          "internalType": "string",
          "name": "objectName",
          "type": "string"
        },
        {
          "internalType": "string",
          "name": "place",
          "type": "string"
        }
      ],
      "name": "getCheckResult",
      "outputs": [
        {
          "internalType": "bool",
          "name": "",
          "type": "bool"
        }
      ],
      "stateMutability": "view",
      "type": "function"
    },
    {
      "inputs": [
        {
          "components": [
            {
              "internalType": "string",
              "name": "id",
              "type": "string"
            },
            {
              "components": [
                {
                  "internalType": "string",
                  "name": "name",
                  "type": "string"
                },
                {
                  "internalType": "string",
                  "name": "role",
                  "type": "string"
                }
              ],
              "internalType": "struct Base.SubjectAttribute",
              "name": "attribute",
              "type": "tuple"
            }
          ],
          "internalType": "struct Base.Subject",
          "name": "subject",
          "type": "tuple"
        },
        {
          "components": [
            {
              "internalType": "string",
              "name": "id",
              "type": "string"
            },
            {
              "components": [
                {
                  "internalType": "string",
                  "name": "name",
                  "type": "string"
                },
                {
                  "internalType": "string",
                  "name": "place",
                  "type": "string"
                }
              ],
              "internalType": "struct Base.ObjectAttribute",
              "name": "attribute",
              "type": "tuple"
            }
          ],
          "internalType": "struct Base.Object",
          "name": "object",
          "type": "tuple"
        },
        {
          "components": [
            {
              "internalType": "bool",
              "name": "write",
              "type": "bool"
            },
            {
              "internalType": "bool",
              "name": "read",
              "type": "bool"
            },
            {
              "internalType": "bool",
              "name": "execute",
              "type": "bool"
            }
          ],
          "internalType": "struct Base.Action",
          "name": "action",
          "type": "tuple"
        },
        {
          "components": [
            {
              "internalType": "uint256",
              "name": "start",
              "type": "uint256"
            },
            {
              "internalType": "uint256",
              "name": "end",
              "type": "uint256"
            }
          ],
          "internalType": "struct Base.Context",
          "name": "context",
          "type": "tuple"
        }
      ],
      "name": "addPolicy",
      "outputs": [
        {
          "internalType": "bool",
          "name": "",
          "type": "bool"
        },
        {
          "internalType": "int256[]",
          "name": "",
          "type": "int256[]"
        }
      ],
      "stateMutability": "nonpayable",
      "type": "function"
    },
    {
      "inputs": [
        {
          "components": [
            {
              "internalType": "string",
              "name": "id",
              "type": "string"
            },
            {
              "components": [
                {
                  "internalType": "string",
                  "name": "name",
                  "type": "string"
                },
                {
                  "internalType": "string",
                  "name": "role",
                  "type": "string"
                }
              ],
              "internalType": "struct Base.SubjectAttribute",
              "name": "attribute",
              "type": "tuple"
            }
          ],
          "internalType": "struct Base.Subject",
          "name": "subject",
          "type": "tuple"
        },
        {
          "components": [
            {
              "internalType": "string",
              "name": "id",
              "type": "string"
            },
            {
              "components": [
                {
                  "internalType": "string",
                  "name": "name",
                  "type": "string"
                },
                {
                  "internalType": "string",
                  "name": "place",
                  "type": "string"
                }
              ],
              "internalType": "struct Base.ObjectAttribute",
              "name": "attribute",
              "type": "tuple"
            }
          ],
          "internalType": "struct Base.Object",
          "name": "object",
          "type": "tuple"
        },
        {
          "components": [
            {
              "internalType": "bool",
              "name": "write",
              "type": "bool"
            },
            {
              "internalType": "bool",
              "name": "read",
              "type": "bool"
            },
            {
              "internalType": "bool",
              "name": "execute",
              "type": "bool"
            }
          ],
          "internalType": "struct Base.Action",
          "name": "action",
          "type": "tuple"
        },
        {
          "components": [
            {
              "internalType": "uint256",
              "name": "start",
              "type": "uint256"
            },
            {
              "internalType": "uint256",
              "name": "end",
              "type": "uint256"
            }
          ],
          "internalType": "struct Base.Context",
          "name": "context",
          "type": "tuple"
        }
      ],
      "name": "updatePolicy",
      "outputs": [
        {
          "internalType": "bool",
          "name": "",
          "type": "bool"
        },
        {
          "internalType": "int256[]",
          "name": "",
          "type": "int256[]"
        }
      ],
      "stateMutability": "nonpayable",
      "type": "function"
    },
    {
      "inputs": [
        {
          "components": [
            {
              "internalType": "string",
              "name": "id",
              "type": "string"
            },
            {
              "components": [
                {
                  "internalType": "string",
                  "name": "name",
                  "type": "string"
                },
                {
                  "internalType": "string",
                  "name": "role",
                  "type": "string"
                }
              ],
              "internalType": "struct Base.SubjectAttribute",
              "name": "attribute",
              "type": "tuple"
            }
          ],
          "internalType": "struct Base.Subject",
          "name": "subject",
          "type": "tuple"
        },
        {
          "components": [
            {
              "internalType": "string",
              "name": "id",
              "type": "string"
            },
            {
              "components": [
                {
                  "internalType": "string",
                  "name": "name",
                  "type": "string"
                },
                {
                  "internalType": "string",
                  "name": "place",
                  "type": "string"
                }
              ],
              "internalType": "struct Base.ObjectAttribute",
              "name": "attribute",
              "type": "tuple"
            }
          ],
          "internalType": "struct Base.Object",
          "name": "object",
          "type": "tuple"
        }
      ],
      "name": "deletePolicy",
      "outputs": [
        {
          "internalType": "bool",
          "name": "",
          "type": "bool"
        }
      ],
      "stateMutability": "nonpayable",
      "type": "function"
    },
    {
      "inputs": [
        {
          "components": [
            {
              "internalType": "string",
              "name": "name",
              "type": "string"
            },
            {
              "internalType": "string",
              "name": "role",
              "type": "string"
            }
          ],
          "internalType": "struct Base.SubjectAttribute",
          "name": "sa",
          "type": "tuple"
        },
        {
          "components": [
            {
              "internalType": "string",
              "name": "name",
              "type": "string"
            },
            {
              "internalType": "string",
              "name": "place",
              "type": "string"
            }
          ],
          "internalType": "struct Base.ObjectAttribute",
          "name": "oa",
          "type": "tuple"
        }
      ],
      "name": "findMatchPolicy",
      "outputs": [
        {
          "internalType": "int256[]",
          "name": "",
          "type": "int256[]"
        }
      ],
      "stateMutability": "view",
      "type": "function"
    },
    {
      "inputs": [
        {
          "components": [
            {
              "internalType": "string",
              "name": "name",
              "type": "string"
            },
            {
              "internalType": "string",
              "name": "role",
              "type": "string"
            }
          ],
          "internalType": "struct Base.SubjectAttribute",
          "name": "sa",
          "type": "tuple"
        },
        {
          "components": [
            {
              "internalType": "string",
              "name": "name",
              "type": "string"
            },
            {
              "internalType": "string",
              "name": "place",
              "type": "string"
            }
          ],
          "internalType": "struct Base.ObjectAttribute",
          "name": "oa",
          "type": "tuple"
        }
      ],
      "name": "findExactMatchPolicy",
      "outputs": [
        {
          "internalType": "int256",
          "name": "",
          "type": "int256"
        }
      ],
      "stateMutability": "view",
      "type": "function"
    }
  ],
  "bytecode": "0x60806040523480156200001157600080fd5b506200002d612710600760006200003360201b9092919060201c565b62000151565b8167ffffffffffffffff81111562000050576200004f62000122565b5b6040519080825280602002602001820160405280156200007f5781602001602082028036833780820191505090505b5083600001908051906020019062000099929190620000b1565b50818360020181905550808360030181905550505050565b828054828255906000526020600020908101928215620000f0579160200282015b82811115620000ef578251825591602001919060010190620000d2565b5b509050620000ff919062000103565b5090565b5b808211156200011e57600081600090555060010162000104565b5090565b7f4e487b7100000000000000000000000000000000000000000000000000000000600052604160045260246000fd5b6154cc80620001616000396000f3fe608060405234801561001057600080fd5b50600436106100935760003560e01c806392db3b6f1161006657806392db3b6f14610147578063ba58128c14610177578063e610341d146101a8578063fe0561bf146101d8578063ffedc5ff146101f657610093565b80632b07fce31461009857806332a7164f146100c85780633b04f6f1146100f85780637f94ce6e14610116575b600080fd5b6100b260048036038101906100ad9190613ce9565b610226565b6040516100bf9190613fbb565b60405180910390f35b6100e260048036038101906100dd9190614112565b6106ab565b6040516100ef91906141f8565b60405180910390f35b6101006106d1565b60405161010d919061433f565b60405180910390f35b610130600480360381019061012b91906143e2565b610b79565b60405161013e929190614549565b60405180910390f35b610161600480360381019061015c91906145b7565b6117d4565b60405161016e919061463e565b60405180910390f35b610191600480360381019061018c91906143e2565b611a6a565b60405161019f929190614549565b60405180910390f35b6101c260048036038101906101bd91906145b7565b61239d565b6040516101cf9190614659565b60405180910390f35b6101e0612b6c565b6040516101ed91906148ab565b60405180910390f35b610210600480360381019061020b91906148cd565b612cc7565b60405161021d91906141f8565b60405180910390f35b61022e613afe565b6004828154811061024257610241614945565b5b90600052602060002090600902016040518060800160405290816000820160405180604001604052908160008201805461027b906149a3565b80601f01602080910402602001604051908101604052809291908181526020018280546102a7906149a3565b80156102f45780601f106102c9576101008083540402835291602001916102f4565b820191906000526020600020905b8154815290600101906020018083116102d757829003601f168201915b505050505081526020016001820160405180604001604052908160008201805461031d906149a3565b80601f0160208091040260200160405190810160405280929190818152602001828054610349906149a3565b80156103965780601f1061036b57610100808354040283529160200191610396565b820191906000526020600020905b81548152906001019060200180831161037957829003601f168201915b505050505081526020016001820180546103af906149a3565b80601f01602080910402602001604051908101604052809291908181526020018280546103db906149a3565b80156104285780601f106103fd57610100808354040283529160200191610428565b820191906000526020600020905b81548152906001019060200180831161040b57829003601f168201915b50505050508152505081525050815260200160038201604051806040016040529081600082018054610459906149a3565b80601f0160208091040260200160405190810160405280929190818152602001828054610485906149a3565b80156104d25780601f106104a7576101008083540402835291602001916104d2565b820191906000526020600020905b8154815290600101906020018083116104b557829003601f168201915b50505050508152602001600182016040518060400160405290816000820180546104fb906149a3565b80601f0160208091040260200160405190810160405280929190818152602001828054610527906149a3565b80156105745780601f1061054957610100808354040283529160200191610574565b820191906000526020600020905b81548152906001019060200180831161055757829003601f168201915b5050505050815260200160018201805461058d906149a3565b80601f01602080910402602001604051908101604052809291908181526020018280546105b9906149a3565b80156106065780601f106105db57610100808354040283529160200191610606565b820191906000526020600020905b8154815290600101906020018083116105e957829003601f168201915b505050505081525050815250508152602001600682016040518060600160405290816000820160009054906101000a900460ff161515151581526020016000820160019054906101000a900460ff161515151581526020016000820160029054906101000a900460ff16151515158152505081526020016007820160405180604001604052908160008201548152602001600182015481525050815250509050919050565b60006106c7858585856000612fd990949392919063ffffffff16565b9050949350505050565b60606004805480602002602001604051908101604052809291908181526020016000905b82821015610b70578382906000526020600020906009020160405180608001604052908160008201604051806040016040529081600082018054610738906149a3565b80601f0160208091040260200160405190810160405280929190818152602001828054610764906149a3565b80156107b15780601f10610786576101008083540402835291602001916107b1565b820191906000526020600020905b81548152906001019060200180831161079457829003601f168201915b50505050508152602001600182016040518060400160405290816000820180546107da906149a3565b80601f0160208091040260200160405190810160405280929190818152602001828054610806906149a3565b80156108535780601f1061082857610100808354040283529160200191610853565b820191906000526020600020905b81548152906001019060200180831161083657829003601f168201915b5050505050815260200160018201805461086c906149a3565b80601f0160208091040260200160405190810160405280929190818152602001828054610898906149a3565b80156108e55780601f106108ba576101008083540402835291602001916108e5565b820191906000526020600020905b8154815290600101906020018083116108c857829003601f168201915b50505050508152505081525050815260200160038201604051806040016040529081600082018054610916906149a3565b80601f0160208091040260200160405190810160405280929190818152602001828054610942906149a3565b801561098f5780601f106109645761010080835404028352916020019161098f565b820191906000526020600020905b81548152906001019060200180831161097257829003601f168201915b50505050508152602001600182016040518060400160405290816000820180546109b8906149a3565b80601f01602080910402602001604051908101604052809291908181526020018280546109e4906149a3565b8015610a315780601f10610a0657610100808354040283529160200191610a31565b820191906000526020600020905b815481529060010190602001808311610a1457829003601f168201915b50505050508152602001600182018054610a4a906149a3565b80601f0160208091040260200160405190810160405280929190818152602001828054610a76906149a3565b8015610ac35780601f10610a9857610100808354040283529160200191610ac3565b820191906000526020600020905b815481529060010190602001808311610aa657829003601f168201915b505050505081525050815250508152602001600682016040518060600160405290816000820160009054906101000a900460ff161515151581526020016000820160019054906101000a900460ff161515151581526020016000820160029054906101000a900460ff1615151515815250508152602001600782016040518060400160405290816000820154815260200160018201548152505081525050815260200190600101906106f5565b50505050905090565b6000606060006040518060a0016040528060018152602001604051602001610ba090614a2b565b60405160208183030381529060405280519060200120898060200190610bc69190614a4f565b8060000190610bd59190614a77565b604051602001610be6929190614aff565b604051602081830303815290604052805190602001201415158152602001604051602001610c1390614a2b565b60405160208183030381529060405280519060200120898060200190610c399190614a4f565b8060200190610c489190614a77565b604051602001610c59929190614aff565b604051602081830303815290604052805190602001201415158152602001604051602001610c8690614a2b565b60405160208183030381529060405280519060200120888060200190610cac9190614b18565b8060000190610cbb9190614a77565b604051602001610ccc929190614aff565b604051602081830303815290604052805190602001201415158152602001604051602001610cf990614a2b565b60405160208183030381529060405280519060200120888060200190610d1f9190614b18565b8060200190610d2e9190614a77565b604051602001610d3f929190614aff565b604051602081830303815290604052805190602001201415158152509050806020015180610d6e575080604001515b80610d7a575080606001515b80610d86575080608001515b15611065576000610db5888060200190610da09190614a4f565b888060200190610db09190614b18565b61239d565b90507fffffffffffffffffffffffffffffffffffffffffffffffffffffffffffffffff81600081518110610dec57610deb614945565b5b60200260200101510361105757600460405180608001604052808a610e1090614c5a565b815260200189610e1f90614d7d565b815260200188803603810190610e359190614e20565b815260200187803603810190610e4b9190614e9d565b81525090806001815401808255809150506001900390600052602060002090600902016000909190919091506000820151816000016000820151816000019081610e959190615076565b506020820151816001016000820151816000019081610eb49190615076565b506020820151816001019081610eca9190615076565b50505050506020820151816003016000820151816000019081610eed9190615076565b506020820151816001016000820151816000019081610f0c9190615076565b506020820151816001019081610f229190615076565b505050505060408201518160060160008201518160000160006101000a81548160ff02191690831515021790555060208201518160000160016101000a81548160ff02191690831515021790555060408201518160000160026101000a81548160ff0219169083151502179055505050606082015181600701600082015181600001556020820151816001015550505050611049888060200190610fc69190614a4f565b8060000190610fd59190614a77565b8a8060200190610fe59190614a4f565b8060200190610ff49190614a77565b8b80602001906110049190614b18565b80600001906110139190614a77565b8d80602001906110239190614b18565b80602001906110329190614a77565b60006135499098979695949392919063ffffffff16565b6001819350935050506117cb565b6000819350935050506117cb565b6112038780602001906110789190614a4f565b80600001906110879190614a77565b8080601f016020809104026020016040519081016040528093929190818152602001838380828437600081840152601f19601f820116905080830192505050505050508880602001906110da9190614a4f565b80602001906110e99190614a77565b8080601f016020809104026020016040519081016040528093929190818152602001838380828437600081840152601f19601f8201169050808301925050505050505088806020019061113c9190614b18565b806000019061114b9190614a77565b8080601f016020809104026020016040519081016040528093929190818152602001838380828437600081840152601f19601f8201169050808301925050505050505089806020019061119e9190614b18565b80602001906111ad9190614a77565b8080601f016020809104026020016040519081016040528093929190818152602001838380828437600081840152601f19601f820116905080830192505050505050506000612fd990949392919063ffffffff16565b156114e257600061123288806020019061121d9190614a4f565b88806020019061122d9190614b18565b61239d565b90507fffffffffffffffffffffffffffffffffffffffffffffffffffffffffffffffff8160008151811061126957611268614945565b5b6020026020010151036114d457600460405180608001604052808a61128d90614c5a565b81526020018961129c90614d7d565b8152602001888036038101906112b29190614e20565b8152602001878036038101906112c89190614e9d565b815250908060018154018082558091505060019003906000526020600020906009020160009091909190915060008201518160000160008201518160000190816113129190615076565b5060208201518160010160008201518160000190816113319190615076565b5060208201518160010190816113479190615076565b5050505050602082015181600301600082015181600001908161136a9190615076565b5060208201518160010160008201518160000190816113899190615076565b50602082015181600101908161139f9190615076565b505050505060408201518160060160008201518160000160006101000a81548160ff02191690831515021790555060208201518160000160016101000a81548160ff02191690831515021790555060408201518160000160026101000a81548160ff02191690831515021790555050506060820151816007016000820151816000015560208201518160010155505050506114c68880602001906114439190614a4f565b80600001906114529190614a77565b8a80602001906114629190614a4f565b80602001906114719190614a77565b8b80602001906114819190614b18565b80600001906114909190614a77565b8d80602001906114a09190614b18565b80602001906114af9190614a77565b60006135499098979695949392919063ffffffff16565b6001819350935050506117cb565b6000819350935050506117cb565b6000600167ffffffffffffffff8111156114ff576114fe613fe7565b5b60405190808252806020026020018201604052801561152d5781602001602082028036833780820191505090505b5090507ffffffffffffffffffffffffffffffffffffffffffffffffffffffffffffffffe8160008151811061156557611564614945565b5b602002602001018181525050600460405180608001604052808a61158890614c5a565b81526020018961159790614d7d565b8152602001888036038101906115ad9190614e20565b8152602001878036038101906115c39190614e9d565b8152509080600181540180825580915050600190039060005260206000209060090201600090919091909150600082015181600001600082015181600001908161160d9190615076565b50602082015181600101600082015181600001908161162c9190615076565b5060208201518160010190816116429190615076565b505050505060208201518160030160008201518160000190816116659190615076565b5060208201518160010160008201518160000190816116849190615076565b50602082015181600101908161169a9190615076565b505050505060408201518160060160008201518160000160006101000a81548160ff02191690831515021790555060208201518160000160016101000a81548160ff02191690831515021790555060408201518160000160026101000a81548160ff02191690831515021790555050506060820151816007016000820151816000015560208201518160010155505050506117c188806020019061173e9190614a4f565b806000019061174d9190614a77565b8a806020019061175d9190614a4f565b806020019061176c9190614a77565b8b806020019061177c9190614b18565b806000019061178b9190614a77565b8d806020019061179b9190614b18565b80602001906117aa9190614a77565b60006135499098979695949392919063ffffffff16565b6001819350935050505b94509492505050565b6000807fffffffffffffffffffffffffffffffffffffffffffffffffffffffffffffffff90506000600480549050905060005b81811015611a5e576004818154811061182357611822614945565b5b906000526020600020906009020160000160010160000160405160200161184a91906151cb565b604051602081830303815290604052805190602001208680600001906118709190614a77565b604051602001611881929190614aff565b6040516020818303038152906040528051906020012003611a4b57600481815481106118b0576118af614945565b5b90600052602060002090600902016000016001016001016040516020016118d791906151cb565b604051602081830303815290604052805190602001208680602001906118fd9190614a77565b60405160200161190e929190614aff565b6040516020818303038152906040528051906020012003611a4b576004818154811061193d5761193c614945565b5b906000526020600020906009020160030160010160000160405160200161196491906151cb565b6040516020818303038152906040528051906020012085806000019061198a9190614a77565b60405160200161199b929190614aff565b6040516020818303038152906040528051906020012003611a4b57600481815481106119ca576119c9614945565b5b90600052602060002090600902016003016001016001016040516020016119f191906151cb565b60405160208183030381529060405280519060200120858060200190611a179190614a77565b604051602001611a28929190614aff565b6040516020818303038152906040528051906020012003611a4b57809250611a5e565b8080611a5690615211565b915050611807565b50819250505092915050565b6000606060006040518060a0016040528060018152602001604051602001611a9190614a2b565b60405160208183030381529060405280519060200120898060200190611ab79190614a4f565b8060000190611ac69190614a77565b604051602001611ad7929190614aff565b604051602081830303815290604052805190602001201415158152602001604051602001611b0490614a2b565b60405160208183030381529060405280519060200120898060200190611b2a9190614a4f565b8060200190611b399190614a77565b604051602001611b4a929190614aff565b604051602081830303815290604052805190602001201415158152602001604051602001611b7790614a2b565b60405160208183030381529060405280519060200120888060200190611b9d9190614b18565b8060000190611bac9190614a77565b604051602001611bbd929190614aff565b604051602081830303815290604052805190602001201415158152602001604051602001611bea90614a2b565b60405160208183030381529060405280519060200120888060200190611c109190614b18565b8060200190611c1f9190614a77565b604051602001611c30929190614aff565b604051602081830303815290604052805190602001201415158152509050806020015180611c5f575080604001515b80611c6b575080606001515b80611c77575080608001515b15611eea576000611ca6888060200190611c919190614a4f565b888060200190611ca19190614b18565b61239d565b90507fffffffffffffffffffffffffffffffffffffffffffffffffffffffffffffffff81600081518110611cdd57611cdc614945565b5b602002602001015103611cf857600081935093505050612394565b6001815103611edc57604051806080016040528089611d1690614c5a565b815260200188611d2590614d7d565b815260200187803603810190611d3b9190614e20565b815260200186803603810190611d519190614e9d565b815250600482600081518110611d6a57611d69614945565b5b602002602001015181548110611d8357611d82614945565b5b90600052602060002090600902016000820151816000016000820151816000019081611daf9190615076565b506020820151816001016000820151816000019081611dce9190615076565b506020820151816001019081611de49190615076565b50505050506020820151816003016000820151816000019081611e079190615076565b506020820151816001016000820151816000019081611e269190615076565b506020820151816001019081611e3c9190615076565b505050505060408201518160060160008201518160000160006101000a81548160ff02191690831515021790555060208201518160000160016101000a81548160ff02191690831515021790555060408201518160000160026101000a81548160ff021916908315150217905550505060608201518160070160008201518160000155602082015181600101555050905050600181935093505050612394565b600081935093505050612394565b612088878060200190611efd9190614a4f565b8060000190611f0c9190614a77565b8080601f016020809104026020016040519081016040528093929190818152602001838380828437600081840152601f19601f82011690508083019250505050505050888060200190611f5f9190614a4f565b8060200190611f6e9190614a77565b8080601f016020809104026020016040519081016040528093929190818152602001838380828437600081840152601f19601f82011690508083019250505050505050888060200190611fc19190614b18565b8060000190611fd09190614a77565b8080601f016020809104026020016040519081016040528093929190818152602001838380828437600081840152601f19601f820116905080830192505050505050508980602001906120239190614b18565b80602001906120329190614a77565b8080601f016020809104026020016040519081016040528093929190818152602001838380828437600081840152601f19601f820116905080830192505050505050506000612fd990949392919063ffffffff16565b156122fb5760006120b78880602001906120a29190614a4f565b8880602001906120b29190614b18565b61239d565b90507fffffffffffffffffffffffffffffffffffffffffffffffffffffffffffffffff816000815181106120ee576120ed614945565b5b60200260200101510361210957600081935093505050612394565b60018151036122ed5760405180608001604052808961212790614c5a565b81526020018861213690614d7d565b81526020018780360381019061214c9190614e20565b8152602001868036038101906121629190614e9d565b81525060048260008151811061217b5761217a614945565b5b60200260200101518154811061219457612193614945565b5b906000526020600020906009020160008201518160000160008201518160000190816121c09190615076565b5060208201518160010160008201518160000190816121df9190615076565b5060208201518160010190816121f59190615076565b505050505060208201518160030160008201518160000190816122189190615076565b5060208201518160010160008201518160000190816122379190615076565b50602082015181600101908161224d9190615076565b505050505060408201518160060160008201518160000160006101000a81548160ff02191690831515021790555060208201518160000160016101000a81548160ff02191690831515021790555060408201518160000160026101000a81548160ff021916908315150217905550505060608201518160070160008201518160000155602082015181600101555050905050600181935093505050612394565b600081935093505050612394565b6000600167ffffffffffffffff81111561231857612317613fe7565b5b6040519080825280602002602001820160405280156123465781602001602082028036833780820191505090505b5090507ffffffffffffffffffffffffffffffffffffffffffffffffffffffffffffffffe8160008151811061237e5761237d614945565b5b6020026020010181815250506000819350935050505b94509492505050565b6060600080600480549050905060008167ffffffffffffffff8111156123c6576123c5613fe7565b5b6040519080825280602002602001820160405280156123f45781602001602082028036833780820191505090505b50905060005b82811015612a145760405160200161241190614a2b565b604051602081830303815290604052805190602001208780600001906124379190614a77565b604051602001612448929190614aff565b60405160208183030381529060405280519060200120141580156124f257506004818154811061247b5761247a614945565b5b90600052602060002090600902016000016001016000016040516020016124a291906151cb565b604051602081830303815290604052805190602001208780600001906124c89190614a77565b6040516020016124d9929190614aff565b6040516020818303038152906040528051906020012014155b8015612572575060405160200161250890614a2b565b604051602081830303815290604052805190602001206004828154811061253257612531614945565b5b906000526020600020906009020160000160010160000160405160200161255991906151cb565b6040516020818303038152906040528051906020012014155b612a015760405160200161258590614a2b565b604051602081830303815290604052805190602001208780602001906125ab9190614a77565b6040516020016125bc929190614aff565b60405160208183030381529060405280519060200120141580156126665750600481815481106125ef576125ee614945565b5b906000526020600020906009020160000160010160010160405160200161261691906151cb565b6040516020818303038152906040528051906020012087806020019061263c9190614a77565b60405160200161264d929190614aff565b6040516020818303038152906040528051906020012014155b80156126e6575060405160200161267c90614a2b565b60405160208183030381529060405280519060200120600482815481106126a6576126a5614945565b5b90600052602060002090600902016000016001016001016040516020016126cd91906151cb565b6040516020818303038152906040528051906020012014155b612a01576040516020016126f990614a2b565b6040516020818303038152906040528051906020012086806000019061271f9190614a77565b604051602001612730929190614aff565b60405160208183030381529060405280519060200120141580156127da57506004818154811061276357612762614945565b5b906000526020600020906009020160030160010160000160405160200161278a91906151cb565b604051602081830303815290604052805190602001208680600001906127b09190614a77565b6040516020016127c1929190614aff565b6040516020818303038152906040528051906020012014155b801561285a57506040516020016127f090614a2b565b604051602081830303815290604052805190602001206004828154811061281a57612819614945565b5b906000526020600020906009020160030160010160000160405160200161284191906151cb565b6040516020818303038152906040528051906020012014155b612a015760405160200161286d90614a2b565b604051602081830303815290604052805190602001208680602001906128939190614a77565b6040516020016128a4929190614aff565b604051602081830303815290604052805190602001201415801561294e5750600481815481106128d7576128d6614945565b5b90600052602060002090600902016003016001016001016040516020016128fe91906151cb565b604051602081830303815290604052805190602001208680602001906129249190614a77565b604051602001612935929190614aff565b6040516020818303038152906040528051906020012014155b80156129ce575060405160200161296490614a2b565b604051602081830303815290604052805190602001206004828154811061298e5761298d614945565b5b90600052602060002090600902016003016001016001016040516020016129b591906151cb565b6040516020818303038152906040528051906020012014155b612a0157808285815181106129e6576129e5614945565b5b60200260200101818152505083806129fd90615211565b9450505b8080612a0c90615211565b9150506123fa565b5060008303612ab8576000600167ffffffffffffffff811115612a3a57612a39613fe7565b5b604051908082528060200260200182016040528015612a685781602001602082028036833780820191505090505b5090507fffffffffffffffffffffffffffffffffffffffffffffffffffffffffffffffff81600081518110612aa057612a9f614945565b5b60200260200101818152505080945050505050612b66565b60008367ffffffffffffffff811115612ad457612ad3613fe7565b5b604051908082528060200260200182016040528015612b025781602001602082028036833780820191505090505b50905060005b84811015612b5d57828181518110612b2357612b22614945565b5b6020026020010151828281518110612b3e57612b3d614945565b5b6020026020010181815250508080612b5590615211565b915050612b08565b50809450505050505b92915050565b612b74613b3e565b600060405180608001604052908160008201805480602002602001604051908101604052809291908181526020018280548015612bd057602002820191906000526020600020905b815481526020019060010190808311612bbc575b5050505050815260200160018201805480602002602001604051908101604052809291908181526020016000905b82821015612ca657838290600052602060002090600202016040518060a0016040529081600082015481526020016001820160009054906101000a900460ff161515151581526020016001820160019054906101000a900460ff161515151581526020016001820160029054906101000a900460ff161515151581526020016001820160039054906101000a900460ff16151515158152505081526020019060010190612bfe565b50505050815260200160028201548152602001600382015481525050905090565b6000612e67838060200190612cdc9190614a4f565b8060000190612ceb9190614a77565b8080601f016020809104026020016040519081016040528093929190818152602001838380828437600081840152601f19601f82011690508083019250505050505050848060200190612d3e9190614a4f565b8060200190612d4d9190614a77565b8080601f016020809104026020016040519081016040528093929190818152602001838380828437600081840152601f19601f82011690508083019250505050505050848060200190612da09190614b18565b8060000190612daf9190614a77565b8080601f016020809104026020016040519081016040528093929190818152602001838380828437600081840152601f19601f82011690508083019250505050505050858060200190612e029190614b18565b8060200190612e119190614a77565b8080601f016020809104026020016040519081016040528093929190818152602001838380828437600081840152601f19601f820116905080830192505050505050506000612fd990949392919063ffffffff16565b15612fce576000612e96848060200190612e819190614a4f565b848060200190612e919190614b18565b6117d4565b90507fffffffffffffffffffffffffffffffffffffffffffffffffffffffffffffffff8114612fc45760048181548110612ed357612ed2614945565b5b9060005260206000209060090201600080820160008082016000612ef79190613b66565b6001820160008082016000612f0c9190613b66565b600182016000612f1c9190613b66565b505050506003820160008082016000612f359190613b66565b6001820160008082016000612f4a9190613b66565b600182016000612f5a9190613b66565b5050505060068201600080820160006101000a81549060ff02191690556000820160016101000a81549060ff02191690556000820160026101000a81549060ff02191690555050600782016000808201600090556001820160009055505050506001915050612fd3565b6000915050612fd3565b600090505b92915050565b6000806001905060008760020154905060005b88600301548110156130c557886002015488888888856040516020016130169594939291906152ab565b6040516020818303038152906040528051906020012060001c6130399190615329565b915088600201548210613081576040517f08c379a0000000000000000000000000000000000000000000000000000000008152600401613078906153b7565b60405180910390fd5b600089600001838154811061309957613098614945565b5b9060005260206000200154116130b257600092506130c5565b80806130bd90615211565b915050612fec565b5081156130d757600192505050613540565b6130df613ba6565b60005b896001018054905081101561353757888260006004811061310657613105614945565b5b6020020181905250878260016004811061312357613122614945565b5b602002018190525086826002600481106131405761313f614945565b5b6020020181905250858260036004811061315d5761315c614945565b5b602002018190525060008a600101828154811061317d5761317c614945565b5b90600052602060002090600202016000015411156133ca578960010181815481106131ab576131aa614945565b5b906000526020600020906002020160010160009054906101000a900460ff1615613222576040518060400160405280600181526020017f2a000000000000000000000000000000000000000000000000000000000000008152508260006004811061321957613218614945565b5b60200201819052505b89600101818154811061323857613237614945565b5b906000526020600020906002020160010160019054906101000a900460ff16156132af576040518060400160405280600181526020017f2a00000000000000000000000000000000000000000000000000000000000000815250826001600481106132a6576132a5614945565b5b60200201819052505b8960010181815481106132c5576132c4614945565b5b906000526020600020906002020160010160029054906101000a900460ff161561333c576040518060400160405280600181526020017f2a000000000000000000000000000000000000000000000000000000000000008152508260026004811061333357613332614945565b5b60200201819052505b89600101818154811061335257613351614945565b5b906000526020600020906002020160010160039054906101000a900460ff16156133c9576040518060400160405280600181526020017f2a00000000000000000000000000000000000000000000000000000000000000815250826003600481106133c0576133bf614945565b5b60200201819052505b5b60005b8a60030154811015613523578a60020154836000600481106133f2576133f1614945565b5b60200201518460016004811061340b5761340a614945565b5b60200201518560026004811061342457613423614945565b5b60200201518660036004811061343d5761343c614945565b5b6020020151856040516020016134579594939291906152ab565b6040516020818303038152906040528051906020012060001c61347a9190615329565b93508a6002015484106134c2576040517f08c379a00000000000000000000000000000000000000000000000000000000081526004016134b9906153b7565b60405180910390fd5b60008b60000185815481106134da576134d9614945565b5b906000526020600020015411156135235760018b600301546134fc91906153d7565b810361351057600195505050505050613540565b808061351b90615211565b9150506133cd565b50808061352f90615211565b9150506130e2565b50600093505050505b95945050505050565b60006040518060a001604052806001815260200160405160200161356c90614a2b565b604051602081830303815290604052805190602001208b8b604051602001613595929190614aff565b6040516020818303038152906040528051906020012014151581526020016040516020016135c290614a2b565b6040516020818303038152906040528051906020012089896040516020016135eb929190614aff565b60405160208183030381529060405280519060200120141515815260200160405160200161361890614a2b565b604051602081830303815290604052805190602001208787604051602001613641929190614aff565b60405160208183030381529060405280519060200120141515815260200160405160200161366e90614a2b565b604051602081830303815290604052805190602001208585604051602001613697929190614aff565b60405160208183030381529060405280519060200120141515815250905060008a6001018054905090508160200151806136d2575081604001515b806136de575081606001515b806136ea575081608001515b15613a0257600081036137b6578a6001018290806001815401808255809150506001900390600052602060002090600202016000909190919091506000820151816000015560208201518160010160006101000a81548160ff02191690831515021790555060408201518160010160016101000a81548160ff02191690831515021790555060608201518160010160026101000a81548160ff02191690831515021790555060808201518160010160036101000a81548160ff0219169083151502179055505050613a01565b60005b818110156139ff57826020015115158c60010182815481106137de576137dd614945565b5b906000526020600020906002020160010160009054906101000a900460ff1615151480156138475750826040015115158c600101828154811061382457613823614945565b5b906000526020600020906002020160010160019054906101000a900460ff161515145b801561388e5750826060015115158c600101828154811061386b5761386a614945565b5b906000526020600020906002020160010160029054906101000a900460ff161515145b80156138d55750826080015115158c60010182815481106138b2576138b1614945565b5b906000526020600020906002020160010160039054906101000a900460ff161515145b1561391e5760018c60010182815481106138f2576138f1614945565b5b90600052602060002090600202016000016000828254613912919061540b565b925050819055506139ff565b60018261392b91906153d7565b81036139ec578b6001018390806001815401808255809150506001900390600052602060002090600202016000909190919091506000820151816000015560208201518160010160006101000a81548160ff02191690831515021790555060408201518160010160016101000a81548160ff02191690831515021790555060608201518160010160026101000a81548160ff02191690831515021790555060808201518160010160036101000a81548160ff02191690831515021790555050505b80806139f790615211565b9150506137b9565b505b5b60005b8b60030154811015613af05760008c600201548c8c8c8c8c8c8c8c8a604051602001613a399998979695949392919061543f565b6040516020818303038152906040528051906020012060001c613a5c9190615329565b90508c600201548110613aa4576040517f08c379a0000000000000000000000000000000000000000000000000000000008152600401613a9b906153b7565b60405180910390fd5b60018d6000018281548110613abc57613abb614945565b5b906000526020600020016000828254613ad5919061540b565b92505081905550508080613ae890615211565b915050613a05565b505050505050505050505050565b6040518060800160405280613b11613bcd565b8152602001613b1e613bed565b8152602001613b2b613c0d565b8152602001613b38613c34565b81525090565b6040518060800160405280606081526020016060815260200160008152602001600081525090565b508054613b72906149a3565b6000825580601f10613b845750613ba3565b601f016020900490600052602060002090810190613ba29190613c4e565b5b50565b60405180608001604052806004905b6060815260200190600190039081613bb55790505090565b604051806040016040528060608152602001613be7613c6b565b81525090565b604051806040016040528060608152602001613c07613c85565b81525090565b60405180606001604052806000151581526020016000151581526020016000151581525090565b604051806040016040528060008152602001600081525090565b5b80821115613c67576000816000905550600101613c4f565b5090565b604051806040016040528060608152602001606081525090565b604051806040016040528060608152602001606081525090565b6000604051905090565b600080fd5b600080fd5b6000819050919050565b613cc681613cb3565b8114613cd157600080fd5b50565b600081359050613ce381613cbd565b92915050565b600060208284031215613cff57613cfe613ca9565b5b6000613d0d84828501613cd4565b91505092915050565b600081519050919050565b600082825260208201905092915050565b60005b83811015613d50578082015181840152602081019050613d35565b60008484015250505050565b6000601f19601f8301169050919050565b6000613d7882613d16565b613d828185613d21565b9350613d92818560208601613d32565b613d9b81613d5c565b840191505092915050565b60006040830160008301518482036000860152613dc38282613d6d565b91505060208301518482036020860152613ddd8282613d6d565b9150508091505092915050565b60006040830160008301518482036000860152613e078282613d6d565b91505060208301518482036020860152613e218282613da6565b9150508091505092915050565b60006040830160008301518482036000860152613e4b8282613d6d565b91505060208301518482036020860152613e658282613d6d565b9150508091505092915050565b60006040830160008301518482036000860152613e8f8282613d6d565b91505060208301518482036020860152613ea98282613e2e565b9150508091505092915050565b60008115159050919050565b613ecb81613eb6565b82525050565b606082016000820151613ee76000850182613ec2565b506020820151613efa6020850182613ec2565b506040820151613f0d6040850182613ec2565b50505050565b613f1c81613cb3565b82525050565b604082016000820151613f386000850182613f13565b506020820151613f4b6020850182613f13565b50505050565b600060e0830160008301518482036000860152613f6e8282613dea565b91505060208301518482036020860152613f888282613e72565b9150506040830151613f9d6040860182613ed1565b506060830151613fb060a0860182613f22565b508091505092915050565b60006020820190508181036000830152613fd58184613f51565b905092915050565b600080fd5b600080fd5b7f4e487b7100000000000000000000000000000000000000000000000000000000600052604160045260246000fd5b61401f82613d5c565b810181811067ffffffffffffffff8211171561403e5761403d613fe7565b5b80604052505050565b6000614051613c9f565b905061405d8282614016565b919050565b600067ffffffffffffffff82111561407d5761407c613fe7565b5b61408682613d5c565b9050602081019050919050565b82818337600083830152505050565b60006140b56140b084614062565b614047565b9050828152602081018484840111156140d1576140d0613fe2565b5b6140dc848285614093565b509392505050565b600082601f8301126140f9576140f8613fdd565b5b81356141098482602086016140a2565b91505092915050565b6000806000806080858703121561412c5761412b613ca9565b5b600085013567ffffffffffffffff81111561414a57614149613cae565b5b614156878288016140e4565b945050602085013567ffffffffffffffff81111561417757614176613cae565b5b614183878288016140e4565b935050604085013567ffffffffffffffff8111156141a4576141a3613cae565b5b6141b0878288016140e4565b925050606085013567ffffffffffffffff8111156141d1576141d0613cae565b5b6141dd878288016140e4565b91505092959194509250565b6141f281613eb6565b82525050565b600060208201905061420d60008301846141e9565b92915050565b600081519050919050565b600082825260208201905092915050565b6000819050602082019050919050565b600060e083016000830151848203600086015261425c8282613dea565b915050602083015184820360208601526142768282613e72565b915050604083015161428b6040860182613ed1565b50606083015161429e60a0860182613f22565b508091505092915050565b60006142b5838361423f565b905092915050565b6000602082019050919050565b60006142d582614213565b6142df818561421e565b9350836020820285016142f18561422f565b8060005b8581101561432d578484038952815161430e85826142a9565b9450614319836142bd565b925060208a019950506001810190506142f5565b50829750879550505050505092915050565b6000602082019050818103600083015261435981846142ca565b905092915050565b600080fd5b60006040828403121561437c5761437b614361565b5b81905092915050565b60006040828403121561439b5761439a614361565b5b81905092915050565b6000606082840312156143ba576143b9614361565b5b81905092915050565b6000604082840312156143d9576143d8614361565b5b81905092915050565b60008060008060e085870312156143fc576143fb613ca9565b5b600085013567ffffffffffffffff81111561441a57614419613cae565b5b61442687828801614366565b945050602085013567ffffffffffffffff81111561444757614446613cae565b5b61445387828801614385565b9350506040614464878288016143a4565b92505060a0614475878288016143c3565b91505092959194509250565b600081519050919050565b600082825260208201905092915050565b6000819050602082019050919050565b6000819050919050565b6144c0816144ad565b82525050565b60006144d283836144b7565b60208301905092915050565b6000602082019050919050565b60006144f682614481565b614500818561448c565b935061450b8361449d565b8060005b8381101561453c57815161452388826144c6565b975061452e836144de565b92505060018101905061450f565b5085935050505092915050565b600060408201905061455e60008301856141e9565b818103602083015261457081846144eb565b90509392505050565b60006040828403121561458f5761458e614361565b5b81905092915050565b6000604082840312156145ae576145ad614361565b5b81905092915050565b600080604083850312156145ce576145cd613ca9565b5b600083013567ffffffffffffffff8111156145ec576145eb613cae565b5b6145f885828601614579565b925050602083013567ffffffffffffffff81111561461957614618613cae565b5b61462585828601614598565b9150509250929050565b614638816144ad565b82525050565b6000602082019050614653600083018461462f565b92915050565b6000602082019050818103600083015261467381846144eb565b905092915050565b600081519050919050565b600082825260208201905092915050565b6000819050602082019050919050565b60006146b38383613f13565b60208301905092915050565b6000602082019050919050565b60006146d78261467b565b6146e18185614686565b93506146ec83614697565b8060005b8381101561471d57815161470488826146a7565b975061470f836146bf565b9250506001810190506146f0565b5085935050505092915050565b600081519050919050565b600082825260208201905092915050565b6000819050602082019050919050565b60a08201600082015161476c6000850182613f13565b50602082015161477f6020850182613ec2565b5060408201516147926040850182613ec2565b5060608201516147a56060850182613ec2565b5060808201516147b86080850182613ec2565b50505050565b60006147ca8383614756565b60a08301905092915050565b6000602082019050919050565b60006147ee8261472a565b6147f88185614735565b935061480383614746565b8060005b8381101561483457815161481b88826147be565b9750614826836147d6565b925050600181019050614807565b5085935050505092915050565b6000608083016000830151848203600086015261485e82826146cc565b9150506020830151848203602086015261487882826147e3565b915050604083015161488d6040860182613f13565b5060608301516148a06060860182613f13565b508091505092915050565b600060208201905081810360008301526148c58184614841565b905092915050565b600080604083850312156148e4576148e3613ca9565b5b600083013567ffffffffffffffff81111561490257614901613cae565b5b61490e85828601614366565b925050602083013567ffffffffffffffff81111561492f5761492e613cae565b5b61493b85828601614385565b9150509250929050565b7f4e487b7100000000000000000000000000000000000000000000000000000000600052603260045260246000fd5b7f4e487b7100000000000000000000000000000000000000000000000000000000600052602260045260246000fd5b600060028204905060018216806149bb57607f821691505b6020821081036149ce576149cd614974565b5b50919050565b600081905092915050565b7f2a00000000000000000000000000000000000000000000000000000000000000600082015250565b6000614a156001836149d4565b9150614a20826149df565b600182019050919050565b6000614a3682614a08565b9150819050919050565b600080fd5b600080fd5b600080fd5b600082356001604003833603038112614a6b57614a6a614a40565b5b80830191505092915050565b60008083356001602003843603038112614a9457614a93614a40565b5b80840192508235915067ffffffffffffffff821115614ab657614ab5614a45565b5b602083019250600182023603831315614ad257614ad1614a4a565b5b509250929050565b6000614ae683856149d4565b9350614af3838584614093565b82840190509392505050565b6000614b0c828486614ada565b91508190509392505050565b600082356001604003833603038112614b3457614b33614a40565b5b80830191505092915050565b600080fd5b600080fd5b600060408284031215614b6057614b5f614b40565b5b614b6a6040614047565b9050600082013567ffffffffffffffff811115614b8a57614b89614b45565b5b614b96848285016140e4565b600083015250602082013567ffffffffffffffff811115614bba57614bb9614b45565b5b614bc6848285016140e4565b60208301525092915050565b600060408284031215614be857614be7614b40565b5b614bf26040614047565b9050600082013567ffffffffffffffff811115614c1257614c11614b45565b5b614c1e848285016140e4565b600083015250602082013567ffffffffffffffff811115614c4257614c41614b45565b5b614c4e84828501614b4a565b60208301525092915050565b6000614c663683614bd2565b9050919050565b600060408284031215614c8357614c82614b40565b5b614c8d6040614047565b9050600082013567ffffffffffffffff811115614cad57614cac614b45565b5b614cb9848285016140e4565b600083015250602082013567ffffffffffffffff811115614cdd57614cdc614b45565b5b614ce9848285016140e4565b60208301525092915050565b600060408284031215614d0b57614d0a614b40565b5b614d156040614047565b9050600082013567ffffffffffffffff811115614d3557614d34614b45565b5b614d41848285016140e4565b600083015250602082013567ffffffffffffffff811115614d6557614d64614b45565b5b614d7184828501614c6d565b60208301525092915050565b6000614d893683614cf5565b9050919050565b614d9981613eb6565b8114614da457600080fd5b50565b600081359050614db681614d90565b92915050565b600060608284031215614dd257614dd1614b40565b5b614ddc6060614047565b90506000614dec84828501614da7565b6000830152506020614e0084828501614da7565b6020830152506040614e1484828501614da7565b60408301525092915050565b600060608284031215614e3657614e35613ca9565b5b6000614e4484828501614dbc565b91505092915050565b600060408284031215614e6357614e62614b40565b5b614e6d6040614047565b90506000614e7d84828501613cd4565b6000830152506020614e9184828501613cd4565b60208301525092915050565b600060408284031215614eb357614eb2613ca9565b5b6000614ec184828501614e4d565b91505092915050565b60008190508160005260206000209050919050565b60006020601f8301049050919050565b600082821b905092915050565b600060088302614f2c7fffffffffffffffffffffffffffffffffffffffffffffffffffffffffffffffff82614eef565b614f368683614eef565b95508019841693508086168417925050509392505050565b6000819050919050565b6000614f73614f6e614f6984613cb3565b614f4e565b613cb3565b9050919050565b6000819050919050565b614f8d83614f58565b614fa1614f9982614f7a565b848454614efc565b825550505050565b600090565b614fb6614fa9565b614fc1818484614f84565b505050565b5b81811015614fe557614fda600082614fae565b600181019050614fc7565b5050565b601f82111561502a57614ffb81614eca565b61500484614edf565b81016020851015615013578190505b61502761501f85614edf565b830182614fc6565b50505b505050565b600082821c905092915050565b600061504d6000198460080261502f565b1980831691505092915050565b6000615066838361503c565b9150826002028217905092915050565b61507f82613d16565b67ffffffffffffffff81111561509857615097613fe7565b5b6150a282546149a3565b6150ad828285614fe9565b600060209050601f8311600181146150e057600084156150ce578287015190505b6150d8858261505a565b865550615140565b601f1984166150ee86614eca565b60005b82811015615116578489015182556001820191506020850194506020810190506150f1565b86831015615133578489015161512f601f89168261503c565b8355505b6001600288020188555050505b505050505050565b60008154615155816149a3565b61515f81866149d4565b9450600182166000811461517a576001811461518f576151c2565b60ff19831686528115158202860193506151c2565b61519885614eca565b60005b838110156151ba5781548189015260018201915060208101905061519b565b838801955050505b50505092915050565b60006151d78284615148565b915081905092915050565b7f4e487b7100000000000000000000000000000000000000000000000000000000600052601160045260246000fd5b600061521c82613cb3565b91507fffffffffffffffffffffffffffffffffffffffffffffffffffffffffffffffff820361524e5761524d6151e2565b5b600182019050919050565b600061526482613d16565b61526e81856149d4565b935061527e818560208601613d32565b80840191505092915050565b6000819050919050565b6152a56152a082613cb3565b61528a565b82525050565b60006152b78288615259565b91506152c38287615259565b91506152cf8286615259565b91506152db8285615259565b91506152e78284615294565b6020820191508190509695505050505050565b7f4e487b7100000000000000000000000000000000000000000000000000000000600052601260045260246000fd5b600061533482613cb3565b915061533f83613cb3565b92508261534f5761534e6152fa565b5b828206905092915050565b600082825260208201905092915050565b7f4f766572666c6f77206572726f72000000000000000000000000000000000000600082015250565b60006153a1600e8361535a565b91506153ac8261536b565b602082019050919050565b600060208201905081810360008301526153d081615394565b9050919050565b60006153e282613cb3565b91506153ed83613cb3565b9250828203905081811115615405576154046151e2565b5b92915050565b600061541682613cb3565b915061542183613cb3565b9250828201905080821115615439576154386151e2565b5b92915050565b600061544c828b8d614ada565b915061545982898b614ada565b9150615466828789614ada565b9150615473828587614ada565b915061547f8284615294565b6020820191508190509a995050505050505050505056fea264697066735822122043fdebe0971facc43efd7ae8753dc8261382ca116bdcf23ff6725292b88bb06564736f6c63430008130033",
  "immutableReferences": {},
  "source": "// SPDX-License-Identifier: MIT\npragma solidity >=0.4.22 <0.9.0;\n\nimport \"./Base.sol\";\nimport \"./BloomFilterMatch.sol\";\n\ncontract ACBF is Base{\n    using BloomFilterMatch for BloomFilterMatch.Filter;\n\n    BloomFilterMatch.Filter filter;\n\n    Policy[] policyList;\n\n    constructor() {\n        filter.init(10000, 7);\n    }\n\n    function getPolicy(uint index) public view returns(Policy memory){\n        return policyList[index];\n    }\n\n    function getFilter() public view returns(BloomFilterMatch.Filter memory){\n        return filter;\n    }\n\n    function getPolicies() public view returns(Policy[] memory){\n        return policyList;\n    }\n\n    function getCheckResult(string memory subjectName, string memory role, string memory objectName, string memory place) public view returns(bool){\n        return filter.check(subjectName, role, objectName, place);\n    }\n\n    function addPolicy(Subject calldata subject, Object calldata object, Action calldata action, Context calldata context) public returns(bool, int[] memory){\n        BloomFilterMatch.MatchPolicy memory mP = BloomFilterMatch.MatchPolicy(1, (keccak256(abi.encodePacked(subject.attribute.name)) == keccak256(abi.encodePacked(\"*\"))), (keccak256(abi.encodePacked(subject.attribute.role)) == keccak256(abi.encodePacked(\"*\"))), (keccak256(abi.encodePacked(object.attribute.name)) == keccak256(abi.encodePacked(\"*\"))), (keccak256(abi.encodePacked(object.attribute.place)) == keccak256(abi.encodePacked(\"*\"))));\n\n        if((mP.subjectName || mP.role || mP.objectName || mP.place)) {\n            int[] memory flag = findMatchPolicy(subject.attribute, object.attribute);\n            if(flag[0] == -1) {\n                policyList.push(Policy(subject, object, action, context));\n                filter.add(subject.attribute.name, subject.attribute.role, object.attribute.name, object.attribute.place);\n                return (true, flag);\n            }\n            return (false, flag);\n        }\n        else {\n            if(filter.check(subject.attribute.name, subject.attribute.role, object.attribute.name, object.attribute.place)) {\n                int[] memory flag = findMatchPolicy(subject.attribute, object.attribute);\n                if(flag[0] == -1) {\n                    policyList.push(Policy(subject, object, action, context));\n                    filter.add(subject.attribute.name, subject.attribute.role, object.attribute.name, object.attribute.place);\n                    return (true, flag);\n                }\n                return (false, flag);\n            }\n            else {\n                int[] memory flag = new int[](1);\n                flag[0] = -2;\n                policyList.push(Policy(subject, object, action, context));\n                filter.add(subject.attribute.name, subject.attribute.role, object.attribute.name, object.attribute.place);\n                return (true, flag);\n            }\n        }\n    }\n\n    function updatePolicy(Subject calldata subject, Object calldata object, Action calldata action, Context calldata context) public returns(bool, int[] memory){\n        BloomFilterMatch.MatchPolicy memory mP = BloomFilterMatch.MatchPolicy(1, (keccak256(abi.encodePacked(subject.attribute.name)) == keccak256(abi.encodePacked(\"*\"))), (keccak256(abi.encodePacked(subject.attribute.role)) == keccak256(abi.encodePacked(\"*\"))), (keccak256(abi.encodePacked(object.attribute.name)) == keccak256(abi.encodePacked(\"*\"))), (keccak256(abi.encodePacked(object.attribute.place)) == keccak256(abi.encodePacked(\"*\"))));\n\n        if((mP.subjectName || mP.role || mP.objectName || mP.place)) {\n            int[] memory flag = findMatchPolicy(subject.attribute, object.attribute);\n            if(flag[0] == -1) {\n                return (false, flag);\n            }\n            if(flag.length == 1){\n                policyList[uint(flag[0])] = Policy(subject, object, action, context);\n                return (true, flag);\n            }\n            else {\n                return (false, flag);\n            }\n        }\n        else {\n            if(filter.check(subject.attribute.name, subject.attribute.role, object.attribute.name, object.attribute.place)) {\n                int[] memory flag = findMatchPolicy(subject.attribute, object.attribute);\n                if(flag[0] == -1) {\n                    return (false, flag);\n                }\n                if(flag.length == 1){\n                    policyList[uint(flag[0])] = Policy(subject, object, action, context);\n                    return (true, flag);\n                }\n                else {\n                    return (false, flag);\n                }\n            }\n            else {\n                int[] memory flag = new int[](1);\n                flag[0] = -2;\n                return (false, flag);\n            }\n        }\n    }\n\n    function deletePolicy(Subject calldata subject, Object calldata object) public returns(bool) {\n        if(filter.check(subject.attribute.name, subject.attribute.role, object.attribute.name, object.attribute.place)) {\n                int flag = findExactMatchPolicy(subject.attribute, object.attribute);\n                if(flag != -1) {\n                    delete policyList[uint(flag)];\n                    return true;\n                }\n                return false;\n            }\n            else {\n                return false;\n            }\n    }\n\n    function findMatchPolicy(SubjectAttribute calldata sa, ObjectAttribute calldata oa) public view returns(int[] memory){\n        uint count = 0;\n        uint policyLength = policyList.length;\n        int[] memory index = new int[](policyLength);\n        for(uint i = 0; i < policyLength; i++) {\n            if(keccak256(abi.encodePacked(sa.name)) != keccak256(abi.encodePacked(\"*\")) && keccak256(abi.encodePacked(sa.name)) != keccak256(abi.encodePacked(policyList[i].subject.attribute.name)) && keccak256(abi.encodePacked(policyList[i].subject.attribute.name)) != keccak256(abi.encodePacked(\"*\"))) {\n                continue;\n            }\n            if(keccak256(abi.encodePacked(sa.role)) != keccak256(abi.encodePacked(\"*\")) && keccak256(abi.encodePacked(sa.role)) != keccak256(abi.encodePacked(policyList[i].subject.attribute.role)) && keccak256(abi.encodePacked(policyList[i].subject.attribute.role)) != keccak256(abi.encodePacked(\"*\"))) {\n                continue;\n            }\n            if(keccak256(abi.encodePacked(oa.name)) != keccak256(abi.encodePacked(\"*\")) && keccak256(abi.encodePacked(oa.name)) != keccak256(abi.encodePacked(policyList[i].object.attribute.name)) && keccak256(abi.encodePacked(policyList[i].object.attribute.name)) != keccak256(abi.encodePacked(\"*\"))) {\n                continue;\n            }\n            if(keccak256(abi.encodePacked(oa.place)) != keccak256(abi.encodePacked(\"*\")) && keccak256(abi.encodePacked(oa.place)) != keccak256(abi.encodePacked(policyList[i].object.attribute.place)) && keccak256(abi.encodePacked(policyList[i].object.attribute.place)) != keccak256(abi.encodePacked(\"*\"))) {\n                continue;\n            }\n            index[count] = int(i);\n            count++;\n        }\n        if(count == 0) {\n            int[] memory arrayMemory = new int[](1);\n            arrayMemory[0] = -1;\n            return arrayMemory;\n        }\n        else{\n            int[] memory arrayMemory = new int[](count);\n            for(uint i = 0; i < count; i++){\n                arrayMemory[i] = index[i];\n            }\n            return arrayMemory;\n        }\n    }\n\n    function findExactMatchPolicy(SubjectAttribute calldata sa, ObjectAttribute calldata oa) public view returns(int) {\n        int index = -1;\n        uint policyLength = policyList.length;\n        for(uint i = 0; i < policyLength; i++) {\n            if(keccak256(abi.encodePacked(sa.name)) != keccak256(abi.encodePacked(policyList[i].subject.attribute.name))) {\n                continue;\n            }\n            if(keccak256(abi.encodePacked(sa.role)) != keccak256(abi.encodePacked(policyList[i].subject.attribute.role))) {\n                continue;\n            }\n            if(keccak256(abi.encodePacked(oa.name)) != keccak256(abi.encodePacked(policyList[i].object.attribute.name))) {\n                continue;\n            }\n            if(keccak256(abi.encodePacked(oa.place)) != keccak256(abi.encodePacked(policyList[i].object.attribute.place))) {\n                continue;\n            }\n            index = int(i);\n            break;\n        }\n        return index;\n    } \n\n\n}",
  "sourcePath": "/Users/rokurock/ACBF GRB/abacforethereum/contracts/ACBF.sol",
  "compiler": {
    "name": "solc",
    "version": "0.8.19+commit.7dd6d404.Emscripten.clang"
  },
  "schemaVersion": "3.4.16",
  "updatedAt": "2024-02-28T09:24:11.566Z",
  "devdoc": {
    "kind": "dev",
    "methods": {},
    "version": 1
  },
  "userdoc": {
    "kind": "user",
    "methods": {},
    "version": 1
  }
}