{
  "contractName": "ACC",
  "abi": [
    {
      "inputs": [
        {
          "internalType": "string",
          "name": "id",
          "type": "string"
        }
      ],
      "name": "getSubjectAttribute",
      "outputs": [
        {
          "internalType": "string",
          "name": "",
          "type": "string"
        },
        {
          "internalType": "string",
          "name": "",
          "type": "string"
        }
      ],
      "stateMutability": "view",
      "type": "function"
    },
    {
      "inputs": [
        {
          "internalType": "string",
          "name": "id",
          "type": "string"
        }
      ],
      "name": "getObjectAttribute",
      "outputs": [
        {
          "internalType": "string",
          "name": "",
          "type": "string"
        },
        {
          "internalType": "string",
          "name": "",
          "type": "string"
        }
      ],
      "stateMutability": "view",
      "type": "function"
    },
    {
      "inputs": [
        {
          "internalType": "string",
          "name": "subjectName",
          "type": "string"
        },
        {
          "internalType": "string",
          "name": "role",
          "type": "string"
        },
        {
          "internalType": "string",
          "name": "objectName",
          "type": "string"
        },
        {
          "internalType": "string",
          "name": "place",
          "type": "string"
        }
      ],
      "name": "getPolicy",
      "outputs": [
        {
          "internalType": "bool",
          "name": "",
          "type": "bool"
        },
        {
          "internalType": "bool",
          "name": "",
          "type": "bool"
        },
        {
          "internalType": "bool",
          "name": "",
          "type": "bool"
        }
      ],
      "stateMutability": "view",
      "type": "function"
    },
    {
      "inputs": [
        {
          "internalType": "string",
          "name": "subjectId",
          "type": "string"
        },
        {
          "internalType": "string",
          "name": "objectId",
          "type": "string"
        }
      ],
      "name": "getAccessResult",
      "outputs": [
        {
          "internalType": "bool",
          "name": "",
          "type": "bool"
        },
        {
          "internalType": "bool",
          "name": "",
          "type": "bool"
        },
        {
          "internalType": "bool",
          "name": "",
          "type": "bool"
        }
      ],
      "stateMutability": "view",
      "type": "function"
    }
  ],
  "bytecode": "0x6080604052736b931c1ee13c018ce43fb64ab0adb0eb535acc126000806101000a81548173ffffffffffffffffffffffffffffffffffffffff021916908373ffffffffffffffffffffffffffffffffffffffff16021790555073b050a80549e12065274f21d26301a21ff10f2186600160006101000a81548173ffffffffffffffffffffffffffffffffffffffff021916908373ffffffffffffffffffffffffffffffffffffffff16021790555073114e680ea6f066230dfdb50584a93f45f2f43a12600260006101000a81548173ffffffffffffffffffffffffffffffffffffffff021916908373ffffffffffffffffffffffffffffffffffffffff16021790555034801561010e57600080fd5b506113468061011e6000396000f3fe608060405234801561001057600080fd5b506004361061004c5760003560e01c80635231289614610051578063527cbf9d14610082578063eb294932146100b4578063faa362cc146100e5575b600080fd5b61006b600480360381019061006691906106f2565b610117565b6040516100799291906107cf565b60405180910390f35b61009c60048036038101906100979190610806565b610273565b6040516100ab939291906108a2565b60405180910390f35b6100ce60048036038101906100c991906106f2565b6102d9565b6040516100dc9291906107cf565b60405180910390f35b6100ff60048036038101906100fa9190610a09565b610435565b60405161010e939291906108a2565b60405180910390f35b606080600260009054906101000a900473ffffffffffffffffffffffffffffffffffffffff1673ffffffffffffffffffffffffffffffffffffffff16634aeee7ba85856040518363ffffffff1660e01b8152600401610177929190610b0d565b600060405180830381865afa158015610194573d6000803e3d6000fd5b505050506040513d6000823e3d601f19601f820116820180604052508101906101bd9190610c33565b60000151600260009054906101000a900473ffffffffffffffffffffffffffffffffffffffff1673ffffffffffffffffffffffffffffffffffffffff16634aeee7ba86866040518363ffffffff1660e01b815260040161021e929190610b0d565b600060405180830381865afa15801561023b573d6000803e3d6000fd5b505050506040513d6000823e3d601f19601f820116820180604052508101906102649190610c33565b60200151915091509250929050565b60008060006060806060806102888b8b610117565b809450819550505061029a89896102d9565b809250819350505060008060006102b387878787610435565b809350819450829550505050828282995099509950505050505050509450945094915050565b606080600160009054906101000a900473ffffffffffffffffffffffffffffffffffffffff1673ffffffffffffffffffffffffffffffffffffffff16630153ea9185856040518363ffffffff1660e01b8152600401610339929190610b0d565b600060405180830381865afa158015610356573d6000803e3d6000fd5b505050506040513d6000823e3d601f19601f8201168201806040525081019061037f9190610d04565b60000151600160009054906101000a900473ffffffffffffffffffffffffffffffffffffffff1673ffffffffffffffffffffffffffffffffffffffff16630153ea9186866040518363ffffffff1660e01b81526004016103e0929190610b0d565b600060405180830381865afa1580156103fd573d6000803e3d6000fd5b505050506040513d6000823e3d601f19601f820116820180604052508101906104269190610d04565b60200151915091509250929050565b60008060008060008054906101000a900473ffffffffffffffffffffffffffffffffffffffff1673ffffffffffffffffffffffffffffffffffffffff1663e610341d60405180604001604052808b81526020018a81525060405180604001604052808a8152602001898152506040518363ffffffff1660e01b81526004016104be929190610e1f565b600060405180830381865afa1580156104db573d6000803e3d6000fd5b505050506040513d6000823e3d601f19601f820116820180604052508101906105049190610f4f565b905060018151036106625760008160008151811061052557610524610f98565b5b602002602001015112156105445760008060009350935093505061066f565b60008060009054906101000a900473ffffffffffffffffffffffffffffffffffffffff1673ffffffffffffffffffffffffffffffffffffffff16632b07fce38360008151811061059757610596610f98565b5b60200260200101516040518263ffffffff1660e01b81526004016105bb9190610fe0565b600060405180830381865afa1580156105d8573d6000803e3d6000fd5b505050506040513d6000823e3d601f19601f8201168201806040525081019061060191906112c7565b9050806060015160000151421015801561062357508060600151602001514211155b1561065057806040015160200151816040015160000151826040015160400151945094509450505061066f565b6000806000945094509450505061066f565b6000806000935093509350505b9450945094915050565b6000604051905090565b600080fd5b600080fd5b600080fd5b600080fd5b600080fd5b60008083601f8401126106b2576106b161068d565b5b8235905067ffffffffffffffff8111156106cf576106ce610692565b5b6020830191508360018202830111156106eb576106ea610697565b5b9250929050565b6000806020838503121561070957610708610683565b5b600083013567ffffffffffffffff81111561072757610726610688565b5b6107338582860161069c565b92509250509250929050565b600081519050919050565b600082825260208201905092915050565b60005b8381101561077957808201518184015260208101905061075e565b60008484015250505050565b6000601f19601f8301169050919050565b60006107a18261073f565b6107ab818561074a565b93506107bb81856020860161075b565b6107c481610785565b840191505092915050565b600060408201905081810360008301526107e98185610796565b905081810360208301526107fd8184610796565b90509392505050565b600080600080604085870312156108205761081f610683565b5b600085013567ffffffffffffffff81111561083e5761083d610688565b5b61084a8782880161069c565b9450945050602085013567ffffffffffffffff81111561086d5761086c610688565b5b6108798782880161069c565b925092505092959194509250565b60008115159050919050565b61089c81610887565b82525050565b60006060820190506108b76000830186610893565b6108c46020830185610893565b6108d16040830184610893565b949350505050565b600080fd5b7f4e487b7100000000000000000000000000000000000000000000000000000000600052604160045260246000fd5b61091682610785565b810181811067ffffffffffffffff82111715610935576109346108de565b5b80604052505050565b6000610948610679565b9050610954828261090d565b919050565b600067ffffffffffffffff821115610974576109736108de565b5b61097d82610785565b9050602081019050919050565b82818337600083830152505050565b60006109ac6109a784610959565b61093e565b9050828152602081018484840111156109c8576109c76108d9565b5b6109d384828561098a565b509392505050565b600082601f8301126109f0576109ef61068d565b5b8135610a00848260208601610999565b91505092915050565b60008060008060808587031215610a2357610a22610683565b5b600085013567ffffffffffffffff811115610a4157610a40610688565b5b610a4d878288016109db565b945050602085013567ffffffffffffffff811115610a6e57610a6d610688565b5b610a7a878288016109db565b935050604085013567ffffffffffffffff811115610a9b57610a9a610688565b5b610aa7878288016109db565b925050606085013567ffffffffffffffff811115610ac857610ac7610688565b5b610ad4878288016109db565b91505092959194509250565b6000610aec838561074a565b9350610af983858461098a565b610b0283610785565b840190509392505050565b60006020820190508181036000830152610b28818486610ae0565b90509392505050565b600080fd5b600080fd5b6000610b4e610b4984610959565b61093e565b905082815260208101848484011115610b6a57610b696108d9565b5b610b7584828561075b565b509392505050565b600082601f830112610b9257610b9161068d565b5b8151610ba2848260208601610b3b565b91505092915050565b600060408284031215610bc157610bc0610b31565b5b610bcb604061093e565b9050600082015167ffffffffffffffff811115610beb57610bea610b36565b5b610bf784828501610b7d565b600083015250602082015167ffffffffffffffff811115610c1b57610c1a610b36565b5b610c2784828501610b7d565b60208301525092915050565b600060208284031215610c4957610c48610683565b5b600082015167ffffffffffffffff811115610c6757610c66610688565b5b610c7384828501610bab565b91505092915050565b600060408284031215610c9257610c91610b31565b5b610c9c604061093e565b9050600082015167ffffffffffffffff811115610cbc57610cbb610b36565b5b610cc884828501610b7d565b600083015250602082015167ffffffffffffffff811115610cec57610ceb610b36565b5b610cf884828501610b7d565b60208301525092915050565b600060208284031215610d1a57610d19610683565b5b600082015167ffffffffffffffff811115610d3857610d37610688565b5b610d4484828501610c7c565b91505092915050565b600082825260208201905092915050565b6000610d698261073f565b610d738185610d4d565b9350610d8381856020860161075b565b610d8c81610785565b840191505092915050565b60006040830160008301518482036000860152610db48282610d5e565b91505060208301518482036020860152610dce8282610d5e565b9150508091505092915050565b60006040830160008301518482036000860152610df88282610d5e565b91505060208301518482036020860152610e128282610d5e565b9150508091505092915050565b60006040820190508181036000830152610e398185610d97565b90508181036020830152610e4d8184610ddb565b90509392505050565b600067ffffffffffffffff821115610e7157610e706108de565b5b602082029050602081019050919050565b6000819050919050565b610e9581610e82565b8114610ea057600080fd5b50565b600081519050610eb281610e8c565b92915050565b6000610ecb610ec684610e56565b61093e565b90508083825260208201905060208402830185811115610eee57610eed610697565b5b835b81811015610f175780610f038882610ea3565b845260208401935050602081019050610ef0565b5050509392505050565b600082601f830112610f3657610f3561068d565b5b8151610f46848260208601610eb8565b91505092915050565b600060208284031215610f6557610f64610683565b5b600082015167ffffffffffffffff811115610f8357610f82610688565b5b610f8f84828501610f21565b91505092915050565b7f4e487b7100000000000000000000000000000000000000000000000000000000600052603260045260246000fd5b6000819050919050565b610fda81610fc7565b82525050565b6000602082019050610ff56000830184610fd1565b92915050565b60006040828403121561101157611010610b31565b5b61101b604061093e565b9050600082015167ffffffffffffffff81111561103b5761103a610b36565b5b61104784828501610b7d565b600083015250602082015167ffffffffffffffff81111561106b5761106a610b36565b5b61107784828501610bab565b60208301525092915050565b60006040828403121561109957611098610b31565b5b6110a3604061093e565b9050600082015167ffffffffffffffff8111156110c3576110c2610b36565b5b6110cf84828501610b7d565b600083015250602082015167ffffffffffffffff8111156110f3576110f2610b36565b5b6110ff84828501610c7c565b60208301525092915050565b61111481610887565b811461111f57600080fd5b50565b6000815190506111318161110b565b92915050565b60006060828403121561114d5761114c610b31565b5b611157606061093e565b9050600061116784828501611122565b600083015250602061117b84828501611122565b602083015250604061118f84828501611122565b60408301525092915050565b6111a481610fc7565b81146111af57600080fd5b50565b6000815190506111c18161119b565b92915050565b6000604082840312156111dd576111dc610b31565b5b6111e7604061093e565b905060006111f7848285016111b2565b600083015250602061120b848285016111b2565b60208301525092915050565b600060e0828403121561122d5761122c610b31565b5b611237608061093e565b9050600082015167ffffffffffffffff81111561125757611256610b36565b5b61126384828501610ffb565b600083015250602082015167ffffffffffffffff81111561128757611286610b36565b5b61129384828501611083565b60208301525060406112a784828501611137565b60408301525060a06112bb848285016111c7565b60608301525092915050565b6000602082840312156112dd576112dc610683565b5b600082015167ffffffffffffffff8111156112fb576112fa610688565b5b61130784828501611217565b9150509291505056fea2646970667358221220b5181f516c830fe7253a4a051c271171bb415e457ac88e4625e1a96fa9647adb64736f6c63430008130033",
  "immutableReferences": {},
  "source": "// SPDX-License-Identifier: MIT\npragma solidity >=0.4.22 <0.9.0;\n\nimport \"./Base.sol\";\nimport \"./PMC.sol\";\nimport \"./OAMC.sol\";\nimport \"./SAMC.sol\";\n\n\n\ncontract ACC is Base{\n    PMC pmc = PMC(0x6B931C1Ee13C018CE43Fb64AB0Adb0eb535ACc12);\n    OAMC oamc = OAMC(0xb050a80549E12065274f21d26301a21FF10F2186);\n    SAMC samc = SAMC(0x114e680EA6f066230DFDB50584a93F45f2f43a12);\n\n    function getSubjectAttribute(string calldata id) public view returns(string memory, string memory) {\n        return (samc.getSubject(id).name, samc.getSubject(id).role);\n    }\n\n    function getObjectAttribute(string calldata id) public view returns(string memory, string memory) {\n        return (oamc.getObject(id).name, oamc.getObject(id).place);\n    }\n\n    function getPolicy(string memory subjectName, string memory role, string memory objectName, string memory place) public view returns(bool, bool, bool){\n        int[] memory index = pmc.findMatchPolicy(SubjectAttribute(subjectName, role), ObjectAttribute(objectName, place));\n        if(index.length == 1) {\n            if(index[0] < 0){\n            return (false, false, false);\n            }\n            else{\n                Policy memory policy = pmc.getPolicy(uint(index[0]));\n                if(block.timestamp >= policy.context.start && block.timestamp <= policy.context.end){\n                    return (policy.action.read, policy.action.write, policy.action.execute);\n                }\n                else{\n                    return (false, false, false);\n                }\n            }\n        }\n        else {\n            return (false, false, false);\n        }\n    }\n\n    function getAccessResult(string calldata subjectId, string calldata objectId) public view returns(bool, bool, bool){\n        string memory subjectName;\n        string memory role;\n        string memory objectName;\n        string memory place;\n\n        (subjectName, role) = getSubjectAttribute(subjectId);\n        (objectName, place) = getObjectAttribute(objectId);\n\n        bool read = false;\n        bool write = false;\n        bool execute = false;\n\n        (read, write, execute) = getPolicy(subjectName, role, objectName, place);\n\n        return (read, write, execute);\n\n    }\n}",
  "sourcePath": "/Users/rokurock/ACBF GRB/abacforethereum/contracts/ACC.sol",
  "compiler": {
    "name": "solc",
    "version": "0.8.19+commit.7dd6d404.Emscripten.clang"
  },
  "schemaVersion": "3.4.16",
  "updatedAt": "2024-02-28T09:24:11.575Z",
  "devdoc": {
    "kind": "dev",
    "methods": {},
    "version": 1
  },
  "userdoc": {
    "kind": "user",
    "methods": {},
    "version": 1
  }
}