{
  "contractName": "GRB",
  "abi": [
    {
      "inputs": [],
      "stateMutability": "nonpayable",
      "type": "constructor"
    },
    {
      "inputs": [
        {
          "internalType": "string",
          "name": "id",
          "type": "string"
        }
      ],
      "name": "getSubjectAttribute",
      "outputs": [
        {
          "internalType": "string",
          "name": "",
          "type": "string"
        },
        {
          "internalType": "string",
          "name": "",
          "type": "string"
        }
      ],
      "stateMutability": "view",
      "type": "function"
    },
    {
      "inputs": [
        {
          "internalType": "string",
          "name": "id",
          "type": "string"
        }
      ],
      "name": "getObjectAttribute",
      "outputs": [
        {
          "internalType": "string",
          "name": "",
          "type": "string"
        },
        {
          "internalType": "string",
          "name": "",
          "type": "string"
        }
      ],
      "stateMutability": "view",
      "type": "function"
    },
    {
      "inputs": [],
      "name": "getStart",
      "outputs": [
        {
          "internalType": "uint256",
          "name": "",
          "type": "uint256"
        }
      ],
      "stateMutability": "view",
      "type": "function"
    },
    {
      "inputs": [
        {
          "internalType": "string",
          "name": "subjectName",
          "type": "string"
        },
        {
          "internalType": "string",
          "name": "role",
          "type": "string"
        },
        {
          "internalType": "string",
          "name": "objectName",
          "type": "string"
        },
        {
          "internalType": "string",
          "name": "place",
          "type": "string"
        }
      ],
      "name": "getPolicy",
      "outputs": [
        {
          "internalType": "bool",
          "name": "",
          "type": "bool"
        },
        {
          "internalType": "bool",
          "name": "",
          "type": "bool"
        },
        {
          "internalType": "bool",
          "name": "",
          "type": "bool"
        }
      ],
      "stateMutability": "nonpayable",
      "type": "function"
    },
    {
      "inputs": [
        {
          "internalType": "string",
          "name": "subjectId",
          "type": "string"
        },
        {
          "internalType": "string",
          "name": "objectId",
          "type": "string"
        }
      ],
      "name": "getAccessResult",
      "outputs": [
        {
          "internalType": "bool",
          "name": "",
          "type": "bool"
        },
        {
          "internalType": "bool",
          "name": "",
          "type": "bool"
        },
        {
          "internalType": "bool",
          "name": "",
          "type": "bool"
        }
      ],
      "stateMutability": "nonpayable",
      "type": "function"
    },
    {
      "inputs": [
        {
          "components": [
            {
              "internalType": "string",
              "name": "id",
              "type": "string"
            },
            {
              "components": [
                {
                  "internalType": "string",
                  "name": "name",
                  "type": "string"
                },
                {
                  "internalType": "string",
                  "name": "role",
                  "type": "string"
                }
              ],
              "internalType": "struct Base.SubjectAttribute",
              "name": "attribute",
              "type": "tuple"
            }
          ],
          "internalType": "struct Base.Subject",
          "name": "subject",
          "type": "tuple"
        },
        {
          "components": [
            {
              "internalType": "string",
              "name": "id",
              "type": "string"
            },
            {
              "components": [
                {
                  "internalType": "string",
                  "name": "name",
                  "type": "string"
                },
                {
                  "internalType": "string",
                  "name": "place",
                  "type": "string"
                }
              ],
              "internalType": "struct Base.ObjectAttribute",
              "name": "attribute",
              "type": "tuple"
            }
          ],
          "internalType": "struct Base.Object",
          "name": "object",
          "type": "tuple"
        },
        {
          "components": [
            {
              "internalType": "bool",
              "name": "write",
              "type": "bool"
            },
            {
              "internalType": "bool",
              "name": "read",
              "type": "bool"
            },
            {
              "internalType": "bool",
              "name": "execute",
              "type": "bool"
            }
          ],
          "internalType": "struct Base.Action",
          "name": "action",
          "type": "tuple"
        },
        {
          "components": [
            {
              "internalType": "uint256",
              "name": "start",
              "type": "uint256"
            },
            {
              "internalType": "uint256",
              "name": "end",
              "type": "uint256"
            }
          ],
          "internalType": "struct Base.Context",
          "name": "context",
          "type": "tuple"
        }
      ],
      "name": "addPolicy",
      "outputs": [
        {
          "components": [
            {
              "internalType": "string",
              "name": "name",
              "type": "string"
            },
            {
              "internalType": "string",
              "name": "role",
              "type": "string"
            }
          ],
          "internalType": "struct Base.SubjectAttribute",
          "name": "",
          "type": "tuple"
        },
        {
          "components": [
            {
              "internalType": "string",
              "name": "name",
              "type": "string"
            },
            {
              "internalType": "string",
              "name": "place",
              "type": "string"
            }
          ],
          "internalType": "struct Base.ObjectAttribute",
          "name": "",
          "type": "tuple"
        },
        {
          "components": [
            {
              "components": [
                {
                  "internalType": "string",
                  "name": "id",
                  "type": "string"
                },
                {
                  "components": [
                    {
                      "internalType": "string",
                      "name": "name",
                      "type": "string"
                    },
                    {
                      "internalType": "string",
                      "name": "role",
                      "type": "string"
                    }
                  ],
                  "internalType": "struct Base.SubjectAttribute",
                  "name": "attribute",
                  "type": "tuple"
                }
              ],
              "internalType": "struct Base.Subject",
              "name": "subject",
              "type": "tuple"
            },
            {
              "components": [
                {
                  "internalType": "string",
                  "name": "id",
                  "type": "string"
                },
                {
                  "components": [
                    {
                      "internalType": "string",
                      "name": "name",
                      "type": "string"
                    },
                    {
                      "internalType": "string",
                      "name": "place",
                      "type": "string"
                    }
                  ],
                  "internalType": "struct Base.ObjectAttribute",
                  "name": "attribute",
                  "type": "tuple"
                }
              ],
              "internalType": "struct Base.Object",
              "name": "object",
              "type": "tuple"
            },
            {
              "components": [
                {
                  "internalType": "bool",
                  "name": "write",
                  "type": "bool"
                },
                {
                  "internalType": "bool",
                  "name": "read",
                  "type": "bool"
                },
                {
                  "internalType": "bool",
                  "name": "execute",
                  "type": "bool"
                }
              ],
              "internalType": "struct Base.Action",
              "name": "action",
              "type": "tuple"
            },
            {
              "components": [
                {
                  "internalType": "uint256",
                  "name": "start",
                  "type": "uint256"
                },
                {
                  "internalType": "uint256",
                  "name": "end",
                  "type": "uint256"
                }
              ],
              "internalType": "struct Base.Context",
              "name": "context",
              "type": "tuple"
            }
          ],
          "internalType": "struct Base.Policy[]",
          "name": "",
          "type": "tuple[]"
        }
      ],
      "stateMutability": "nonpayable",
      "type": "function"
    }
  ],
  "bytecode": "0x608060405273fdae559f53daeddec7033768b80c45ffd14a31e46000806101000a81548173ffffffffffffffffffffffffffffffffffffffff021916908373ffffffffffffffffffffffffffffffffffffffff16021790555073a13862cfd27bc61378ce0e8fc1e3326f70174e5c600160006101000a81548173ffffffffffffffffffffffffffffffffffffffff021916908373ffffffffffffffffffffffffffffffffffffffff1602179055507385d601869e4e5f180005784c4e76ff12626b8c9d600260006101000a81548173ffffffffffffffffffffffffffffffffffffffff021916908373ffffffffffffffffffffffffffffffffffffffff1602179055503480156200010f57600080fd5b506200012b612710600760056200013160201b9092919060201c565b6200024f565b8167ffffffffffffffff8111156200014e576200014d62000220565b5b6040519080825280602002602001820160405280156200017d5781602001602082028036833780820191505090505b5083600001908051906020019062000197929190620001af565b50818360010181905550808360020181905550505050565b828054828255906000526020600020908101928215620001ee579160200282015b82811115620001ed578251825591602001919060010190620001d0565b5b509050620001fd919062000201565b5090565b5b808211156200021c57600081600090555060010162000202565b5090565b7f4e487b7100000000000000000000000000000000000000000000000000000000600052604160045260246000fd5b6138fe806200025f6000396000f3fe608060405234801561001057600080fd5b50600436106100625760003560e01c80635231289614610067578063527cbf9d146100985780637f94ce6e146100ca578063c5292c67146100fc578063eb2949321461011a578063faa362cc1461014b575b600080fd5b610081600480360381019061007c9190611aff565b61017d565b60405161008f929190611bdc565b60405180910390f35b6100b260048036038101906100ad9190611c13565b6102d9565b6040516100c193929190611caf565b60405180910390f35b6100e460048036038101906100df9190611d67565b61033f565b6040516100f3939291906121ad565b60405180910390f35b6101046107d1565b6040516101119190612208565b60405180910390f35b610134600480360381019061012f9190611aff565b6107de565b604051610142929190611bdc565b60405180910390f35b61016560048036038101906101609190612353565b61093a565b60405161017493929190611caf565b60405180910390f35b606080600260009054906101000a900473ffffffffffffffffffffffffffffffffffffffff1673ffffffffffffffffffffffffffffffffffffffff16634aeee7ba85856040518363ffffffff1660e01b81526004016101dd929190612457565b600060405180830381865afa1580156101fa573d6000803e3d6000fd5b505050506040513d6000823e3d601f19601f82011682018060405250810190610223919061257d565b60000151600260009054906101000a900473ffffffffffffffffffffffffffffffffffffffff1673ffffffffffffffffffffffffffffffffffffffff16634aeee7ba86866040518363ffffffff1660e01b8152600401610284929190612457565b600060405180830381865afa1580156102a1573d6000803e3d6000fd5b505050506040513d6000823e3d601f19601f820116820180604052508101906102ca919061257d565b60200151915091509250929050565b60008060006060806060806102ee8b8b61017d565b809450819550505061030089896107de565b809250819350505060008060006103198787878761093a565b809350819450829550505050828282995099509950505050505050509450945094915050565b610347611991565b61034f6119ab565b6060600260009054906101000a900473ffffffffffffffffffffffffffffffffffffffff1673ffffffffffffffffffffffffffffffffffffffff166394610cd488806000019061039f91906125d5565b8a80602001906103af9190612638565b80600001906103be91906125d5565b8c80602001906103ce9190612638565b80602001906103dd91906125d5565b6040518763ffffffff1660e01b81526004016103fe96959493929190612660565b600060405180830381600087803b15801561041857600080fd5b505af115801561042c573d6000803e3d6000fd5b50505050600160009054906101000a900473ffffffffffffffffffffffffffffffffffffffff1673ffffffffffffffffffffffffffffffffffffffff1663bcef3f2f87806000019061047e91906125d5565b89806020019061048e91906126b2565b806000019061049d91906125d5565b8b80602001906104ad91906126b2565b80602001906104bc91906125d5565b6040518763ffffffff1660e01b81526004016104dd96959493929190612660565b600060405180830381600087803b1580156104f757600080fd5b505af115801561050b573d6000803e3d6000fd5b5050505060008054906101000a900473ffffffffffffffffffffffffffffffffffffffff1673ffffffffffffffffffffffffffffffffffffffff16637f94ce6e888888886040518563ffffffff1660e01b815260040161056e9493929190612a44565b6000604051808303816000875af115801561058d573d6000803e3d6000fd5b505050506040513d6000823e3d601f19601f820116820180604052508101906105b69190612ba5565b50506000600260009054906101000a900473ffffffffffffffffffffffffffffffffffffffff1673ffffffffffffffffffffffffffffffffffffffff16634aeee7ba89806000019061060891906125d5565b6040518363ffffffff1660e01b8152600401610625929190612457565b600060405180830381865afa158015610642573d6000803e3d6000fd5b505050506040513d6000823e3d601f19601f8201168201806040525081019061066b919061257d565b90506000600160009054906101000a900473ffffffffffffffffffffffffffffffffffffffff1673ffffffffffffffffffffffffffffffffffffffff16630153ea918980600001906106bd91906125d5565b6040518363ffffffff1660e01b81526004016106da929190612457565b600060405180830381865afa1580156106f7573d6000803e3d6000fd5b505050506040513d6000823e3d601f19601f820116820180604052508101906107209190612c89565b905060008060009054906101000a900473ffffffffffffffffffffffffffffffffffffffff1673ffffffffffffffffffffffffffffffffffffffff16633b04f6f16040518163ffffffff1660e01b8152600401600060405180830381865afa158015610790573d6000803e3d6000fd5b505050506040513d6000823e3d601f19601f820116820180604052508101906107b9919061303c565b90508282829550955095505050509450945094915050565b6000600360010154905090565b606080600160009054906101000a900473ffffffffffffffffffffffffffffffffffffffff1673ffffffffffffffffffffffffffffffffffffffff16630153ea9185856040518363ffffffff1660e01b815260040161083e929190612457565b600060405180830381865afa15801561085b573d6000803e3d6000fd5b505050506040513d6000823e3d601f19601f820116820180604052508101906108849190612c89565b60000151600160009054906101000a900473ffffffffffffffffffffffffffffffffffffffff1673ffffffffffffffffffffffffffffffffffffffff16630153ea9186866040518363ffffffff1660e01b81526004016108e5929190612457565b600060405180830381865afa158015610902573d6000803e3d6000fd5b505050506040513d6000823e3d601f19601f8201168201806040525081019061092b9190612c89565b60200151915091509250929050565b600080600061095987878787600561163c90949392919063ffffffff16565b156112ca576000600373__Cache_________________________________63b84e600c909160405180604001604052808c81526020018b81525060405180604001604052808b81526020018a8152506040518463ffffffff1660e01b81526004016109c69392919061315e565b602060405180830381865af41580156109e3573d6000803e3d6000fd5b505050506040513d601f19601f82011682018060405250810190610a0791906131a3565b90506000811215610d825760008060009054906101000a900473ffffffffffffffffffffffffffffffffffffffff1673ffffffffffffffffffffffffffffffffffffffff1663e610341d60405180604001604052808c81526020018b81525060405180604001604052808b81526020018a8152506040518363ffffffff1660e01b8152600401610a989291906131d0565b600060405180830381865afa158015610ab5573d6000803e3d6000fd5b505050506040513d6000823e3d601f19601f82011682018060405250810190610ade9190613207565b90506001815103610d7057600081600081518110610aff57610afe613250565b5b60200260200101511215610b1f5760008060009450945094505050611632565b60008060009054906101000a900473ffffffffffffffffffffffffffffffffffffffff1673ffffffffffffffffffffffffffffffffffffffff16632b07fce383600081518110610b7257610b71613250565b5b60200260200101516040518263ffffffff1660e01b8152600401610b969190612208565b600060405180830381865afa158015610bb3573d6000803e3d6000fd5b505050506040513d6000823e3d601f19601f82011682018060405250810190610bdc919061327f565b90508060600151600001514210158015610bfe57508060600151602001514211155b15610d5d576000610c0d6119c5565b610c5783600001516020015160000151846000015160200151602001518560200151602001516000015186602001516020015160200151600561173190949392919063ffffffff16565b600373__Cache_________________________________63f07c6aa19091856040518363ffffffff1660e01b8152600401610c939291906134d1565b600060405180830381865af4158015610cb0573d6000803e3d6000fd5b505050506040513d6000823e3d601f19601f82011682018060405250810190610cd99190613501565b80925081935050508115610d3257610d3181600001516020015160000151826000015160200151602001518360200151602001516000015184602001516020015160200151600561181f90949392919063ffffffff16565b5b8260400151602001518360400151600001518460400151604001519750975097505050505050611632565b6000806000955095509550505050611632565b60008060009450945094505050611632565b600060036000018281548110610d9b57610d9a613250565b5b906000526020600020906009020160405180608001604052908160008201604051806040016040529081600082018054610dd49061358c565b80601f0160208091040260200160405190810160405280929190818152602001828054610e009061358c565b8015610e4d5780601f10610e2257610100808354040283529160200191610e4d565b820191906000526020600020905b815481529060010190602001808311610e3057829003601f168201915b5050505050815260200160018201604051806040016040529081600082018054610e769061358c565b80601f0160208091040260200160405190810160405280929190818152602001828054610ea29061358c565b8015610eef5780601f10610ec457610100808354040283529160200191610eef565b820191906000526020600020905b815481529060010190602001808311610ed257829003601f168201915b50505050508152602001600182018054610f089061358c565b80601f0160208091040260200160405190810160405280929190818152602001828054610f349061358c565b8015610f815780601f10610f5657610100808354040283529160200191610f81565b820191906000526020600020905b815481529060010190602001808311610f6457829003601f168201915b50505050508152505081525050815260200160038201604051806040016040529081600082018054610fb29061358c565b80601f0160208091040260200160405190810160405280929190818152602001828054610fde9061358c565b801561102b5780601f106110005761010080835404028352916020019161102b565b820191906000526020600020905b81548152906001019060200180831161100e57829003601f168201915b50505050508152602001600182016040518060400160405290816000820180546110549061358c565b80601f01602080910402602001604051908101604052809291908181526020018280546110809061358c565b80156110cd5780601f106110a2576101008083540402835291602001916110cd565b820191906000526020600020905b8154815290600101906020018083116110b057829003601f168201915b505050505081526020016001820180546110e69061358c565b80601f01602080910402602001604051908101604052809291908181526020018280546111129061358c565b801561115f5780601f106111345761010080835404028352916020019161115f565b820191906000526020600020905b81548152906001019060200180831161114257829003601f168201915b505050505081525050815250508152602001600682016040518060600160405290816000820160009054906101000a900460ff161515151581526020016000820160019054906101000a900460ff161515151581526020016000820160029054906101000a900460ff16151515158152505081526020016007820160405180604001604052908160008201548152602001600182015481525050815250509050806060015160000151421015801561121f57508060600151602001514211155b156112b857600373__Cache_________________________________63688dac029091846040518363ffffffff1660e01b81526004016112609291906135cc565b60006040518083038186803b15801561127857600080fd5b505af415801561128c573d6000803e3d6000fd5b505050508060400151602001518160400151600001518260400151604001519450945094505050611632565b60008060009450945094505050611632565b60008060009054906101000a900473ffffffffffffffffffffffffffffffffffffffff1673ffffffffffffffffffffffffffffffffffffffff1663e610341d60405180604001604052808b81526020018a81525060405180604001604052808a8152602001898152506040518363ffffffff1660e01b81526004016113509291906131d0565b600060405180830381865afa15801561136d573d6000803e3d6000fd5b505050506040513d6000823e3d601f19601f820116820180604052508101906113969190613207565b90506001815103611625576000816000815181106113b7576113b6613250565b5b602002602001015112156113d657600080600093509350935050611632565b60008060009054906101000a900473ffffffffffffffffffffffffffffffffffffffff1673ffffffffffffffffffffffffffffffffffffffff16632b07fce38360008151811061142957611428613250565b5b60200260200101516040518263ffffffff1660e01b815260040161144d9190612208565b600060405180830381865afa15801561146a573d6000803e3d6000fd5b505050506040513d6000823e3d601f19601f82011682018060405250810190611493919061327f565b905080606001516000015142101580156114b557508060600151602001514211155b156116135760006114c46119c5565b61150e83600001516020015160000151846000015160200151602001518560200151602001516000015186602001516020015160200151600561173190949392919063ffffffff16565b600373__Cache_________________________________63f07c6aa19091856040518363ffffffff1660e01b815260040161154a9291906134d1565b600060405180830381865af4158015611567573d6000803e3d6000fd5b505050506040513d6000823e3d601f19601f820116820180604052508101906115909190613501565b809250819350505081156115e9576115e881600001516020015160000151826000015160200151602001518360200151602001516000015184602001516020015160200151600561181f90949392919063ffffffff16565b5b82604001516020015183604001516000015184604001516040015196509650965050505050611632565b60008060009450945094505050611632565b6000806000935093509350505b9450945094915050565b600080600090505b866002015481101561172257600087600101548787878786604051602001611670959493929190613652565b6040516020818303038152906040528051906020012060001c61169391906136d0565b9050876001015481106116db576040517f08c379a00000000000000000000000000000000000000000000000000000000081526004016116d29061374d565b60405180910390fd5b60008860000182815481106116f3576116f2613250565b5b90600052602060002001541161170e57600092505050611728565b50808061171a9061379c565b915050611644565b50600190505b95945050505050565b60005b856002015481101561181757600086600101548686868686604051602001611760959493929190613652565b6040516020818303038152906040528051906020012060001c61178391906136d0565b9050866001015481106117cb576040517f08c379a00000000000000000000000000000000000000000000000000000000081526004016117c29061374d565b60405180910390fd5b60018760000182815481106117e3576117e2613250565b5b9060005260206000200160008282546117fc91906137e4565b9250508190555050808061180f9061379c565b915050611734565b505050505050565b60005b85600201548110156119895760008660010154868686868660405160200161184e959493929190613652565b6040516020818303038152906040528051906020012060001c61187191906136d0565b9050866001015481106118b9576040517f08c379a00000000000000000000000000000000000000000000000000000000081526004016118b09061374d565b60405180910390fd5b60008760000182815481106118d1576118d0613250565b5b9060005260206000200154905060008113611921576040517f08c379a000000000000000000000000000000000000000000000000000000000815260040161191890613864565b60405180910390fd5b7fffffffffffffffffffffffffffffffffffffffffffffffffffffffffffffffff8161194d9190613884565b90508088600001838154811061196657611965613250565b5b9060005260206000200181905550505080806119819061379c565b915050611822565b505050505050565b604051806040016040528060608152602001606081525090565b604051806040016040528060608152602001606081525090565b60405180608001604052806119d8611a05565b81526020016119e5611a25565b81526020016119f2611a45565b81526020016119ff611a6c565b81525090565b604051806040016040528060608152602001611a1f611991565b81525090565b604051806040016040528060608152602001611a3f6119ab565b81525090565b60405180606001604052806000151581526020016000151581526020016000151581525090565b604051806040016040528060008152602001600081525090565b6000604051905090565b600080fd5b600080fd5b600080fd5b600080fd5b600080fd5b60008083601f840112611abf57611abe611a9a565b5b8235905067ffffffffffffffff811115611adc57611adb611a9f565b5b602083019150836001820283011115611af857611af7611aa4565b5b9250929050565b60008060208385031215611b1657611b15611a90565b5b600083013567ffffffffffffffff811115611b3457611b33611a95565b5b611b4085828601611aa9565b92509250509250929050565b600081519050919050565b600082825260208201905092915050565b60005b83811015611b86578082015181840152602081019050611b6b565b60008484015250505050565b6000601f19601f8301169050919050565b6000611bae82611b4c565b611bb88185611b57565b9350611bc8818560208601611b68565b611bd181611b92565b840191505092915050565b60006040820190508181036000830152611bf68185611ba3565b90508181036020830152611c0a8184611ba3565b90509392505050565b60008060008060408587031215611c2d57611c2c611a90565b5b600085013567ffffffffffffffff811115611c4b57611c4a611a95565b5b611c5787828801611aa9565b9450945050602085013567ffffffffffffffff811115611c7a57611c79611a95565b5b611c8687828801611aa9565b925092505092959194509250565b60008115159050919050565b611ca981611c94565b82525050565b6000606082019050611cc46000830186611ca0565b611cd16020830185611ca0565b611cde6040830184611ca0565b949350505050565b600080fd5b600060408284031215611d0157611d00611ce6565b5b81905092915050565b600060408284031215611d2057611d1f611ce6565b5b81905092915050565b600060608284031215611d3f57611d3e611ce6565b5b81905092915050565b600060408284031215611d5e57611d5d611ce6565b5b81905092915050565b60008060008060e08587031215611d8157611d80611a90565b5b600085013567ffffffffffffffff811115611d9f57611d9e611a95565b5b611dab87828801611ceb565b945050602085013567ffffffffffffffff811115611dcc57611dcb611a95565b5b611dd887828801611d0a565b9350506040611de987828801611d29565b92505060a0611dfa87828801611d48565b91505092959194509250565b600082825260208201905092915050565b6000611e2282611b4c565b611e2c8185611e06565b9350611e3c818560208601611b68565b611e4581611b92565b840191505092915050565b60006040830160008301518482036000860152611e6d8282611e17565b91505060208301518482036020860152611e878282611e17565b9150508091505092915050565b60006040830160008301518482036000860152611eb18282611e17565b91505060208301518482036020860152611ecb8282611e17565b9150508091505092915050565b600081519050919050565b600082825260208201905092915050565b6000819050602082019050919050565b60006040830160008301518482036000860152611f218282611e17565b91505060208301518482036020860152611f3b8282611e17565b9150508091505092915050565b60006040830160008301518482036000860152611f658282611e17565b91505060208301518482036020860152611f7f8282611f04565b9150508091505092915050565b60006040830160008301518482036000860152611fa98282611e17565b91505060208301518482036020860152611fc38282611e17565b9150508091505092915050565b60006040830160008301518482036000860152611fed8282611e17565b915050602083015184820360208601526120078282611f8c565b9150508091505092915050565b61201d81611c94565b82525050565b6060820160008201516120396000850182612014565b50602082015161204c6020850182612014565b50604082015161205f6040850182612014565b50505050565b6000819050919050565b61207881612065565b82525050565b604082016000820151612094600085018261206f565b5060208201516120a7602085018261206f565b50505050565b600060e08301600083015184820360008601526120ca8282611f48565b915050602083015184820360208601526120e48282611fd0565b91505060408301516120f96040860182612023565b50606083015161210c60a086018261207e565b508091505092915050565b600061212383836120ad565b905092915050565b6000602082019050919050565b600061214382611ed8565b61214d8185611ee3565b93508360208202850161215f85611ef4565b8060005b8581101561219b578484038952815161217c8582612117565b94506121878361212b565b925060208a01995050600181019050612163565b50829750879550505050505092915050565b600060608201905081810360008301526121c78186611e50565b905081810360208301526121db8185611e94565b905081810360408301526121ef8184612138565b9050949350505050565b61220281612065565b82525050565b600060208201905061221d60008301846121f9565b92915050565b600080fd5b7f4e487b7100000000000000000000000000000000000000000000000000000000600052604160045260246000fd5b61226082611b92565b810181811067ffffffffffffffff8211171561227f5761227e612228565b5b80604052505050565b6000612292611a86565b905061229e8282612257565b919050565b600067ffffffffffffffff8211156122be576122bd612228565b5b6122c782611b92565b9050602081019050919050565b82818337600083830152505050565b60006122f66122f1846122a3565b612288565b90508281526020810184848401111561231257612311612223565b5b61231d8482856122d4565b509392505050565b600082601f83011261233a57612339611a9a565b5b813561234a8482602086016122e3565b91505092915050565b6000806000806080858703121561236d5761236c611a90565b5b600085013567ffffffffffffffff81111561238b5761238a611a95565b5b61239787828801612325565b945050602085013567ffffffffffffffff8111156123b8576123b7611a95565b5b6123c487828801612325565b935050604085013567ffffffffffffffff8111156123e5576123e4611a95565b5b6123f187828801612325565b925050606085013567ffffffffffffffff81111561241257612411611a95565b5b61241e87828801612325565b91505092959194509250565b60006124368385611b57565b93506124438385846122d4565b61244c83611b92565b840190509392505050565b6000602082019050818103600083015261247281848661242a565b90509392505050565b600080fd5b600080fd5b6000612498612493846122a3565b612288565b9050828152602081018484840111156124b4576124b3612223565b5b6124bf848285611b68565b509392505050565b600082601f8301126124dc576124db611a9a565b5b81516124ec848260208601612485565b91505092915050565b60006040828403121561250b5761250a61247b565b5b6125156040612288565b9050600082015167ffffffffffffffff81111561253557612534612480565b5b612541848285016124c7565b600083015250602082015167ffffffffffffffff81111561256557612564612480565b5b612571848285016124c7565b60208301525092915050565b60006020828403121561259357612592611a90565b5b600082015167ffffffffffffffff8111156125b1576125b0611a95565b5b6125bd848285016124f5565b91505092915050565b600080fd5b600080fd5b600080fd5b600080833560016020038436030381126125f2576125f16125c6565b5b80840192508235915067ffffffffffffffff821115612614576126136125cb565b5b6020830192506001820236038313156126305761262f6125d0565b5b509250929050565b600082356001604003833603038112612654576126536125c6565b5b80830191505092915050565b6000606082019050818103600083015261267b81888a61242a565b9050818103602083015261269081868861242a565b905081810360408301526126a581848661242a565b9050979650505050505050565b6000823560016040038336030381126126ce576126cd6125c6565b5b80830191505092915050565b600080fd5b600080fd5b600080fd5b60008083356001602003843603038112612706576127056126e4565b5b83810192508235915060208301925067ffffffffffffffff82111561272e5761272d6126da565b5b600182023603831315612744576127436126df565b5b509250929050565b60006127588385611e06565b93506127658385846122d4565b61276e83611b92565b840190509392505050565b600082356001604003833603038112612795576127946126e4565b5b82810191505092915050565b6000604083016127b460008401846126e9565b85830360008701526127c783828461274c565b925050506127d860208401846126e9565b85830360208701526127eb83828461274c565b925050508091505092915050565b60006040830161280c60008401846126e9565b858303600087015261281f83828461274c565b925050506128306020840184612779565b848203602086015261284282826127a1565b9150508091505092915050565b60008235600160400383360303811261286b5761286a6126e4565b5b82810191505092915050565b60006040830161288a60008401846126e9565b858303600087015261289d83828461274c565b925050506128ae60208401846126e9565b85830360208701526128c183828461274c565b925050508091505092915050565b6000604083016128e260008401846126e9565b85830360008701526128f583828461274c565b92505050612906602084018461284f565b84820360208601526129188282612877565b9150508091505092915050565b61292e81611c94565b811461293957600080fd5b50565b60008135905061294b81612925565b92915050565b6000612960602084018461293c565b905092915050565b606082016129796000830183612951565b6129866000850182612014565b506129946020830183612951565b6129a16020850182612014565b506129af6040830183612951565b6129bc6040850182612014565b50505050565b6129cb81612065565b81146129d657600080fd5b50565b6000813590506129e8816129c2565b92915050565b60006129fd60208401846129d9565b905092915050565b60408201612a1660008301836129ee565b612a23600085018261206f565b50612a3160208301836129ee565b612a3e602085018261206f565b50505050565b600060e0820190508181036000830152612a5e81876127f9565b90508181036020830152612a7281866128cf565b9050612a816040830185612968565b612a8e60a0830184612a05565b95945050505050565b600081519050612aa681612925565b92915050565b600067ffffffffffffffff821115612ac757612ac6612228565b5b602082029050602081019050919050565b6000819050919050565b612aeb81612ad8565b8114612af657600080fd5b50565b600081519050612b0881612ae2565b92915050565b6000612b21612b1c84612aac565b612288565b90508083825260208201905060208402830185811115612b4457612b43611aa4565b5b835b81811015612b6d5780612b598882612af9565b845260208401935050602081019050612b46565b5050509392505050565b600082601f830112612b8c57612b8b611a9a565b5b8151612b9c848260208601612b0e565b91505092915050565b60008060408385031215612bbc57612bbb611a90565b5b6000612bca85828601612a97565b925050602083015167ffffffffffffffff811115612beb57612bea611a95565b5b612bf785828601612b77565b9150509250929050565b600060408284031215612c1757612c1661247b565b5b612c216040612288565b9050600082015167ffffffffffffffff811115612c4157612c40612480565b5b612c4d848285016124c7565b600083015250602082015167ffffffffffffffff811115612c7157612c70612480565b5b612c7d848285016124c7565b60208301525092915050565b600060208284031215612c9f57612c9e611a90565b5b600082015167ffffffffffffffff811115612cbd57612cbc611a95565b5b612cc984828501612c01565b91505092915050565b600067ffffffffffffffff821115612ced57612cec612228565b5b602082029050602081019050919050565b600060408284031215612d1457612d1361247b565b5b612d1e6040612288565b9050600082015167ffffffffffffffff811115612d3e57612d3d612480565b5b612d4a848285016124c7565b600083015250602082015167ffffffffffffffff811115612d6e57612d6d612480565b5b612d7a848285016124f5565b60208301525092915050565b600060408284031215612d9c57612d9b61247b565b5b612da66040612288565b9050600082015167ffffffffffffffff811115612dc657612dc5612480565b5b612dd2848285016124c7565b600083015250602082015167ffffffffffffffff811115612df657612df5612480565b5b612e0284828501612c01565b60208301525092915050565b600060608284031215612e2457612e2361247b565b5b612e2e6060612288565b90506000612e3e84828501612a97565b6000830152506020612e5284828501612a97565b6020830152506040612e6684828501612a97565b60408301525092915050565b600081519050612e81816129c2565b92915050565b600060408284031215612e9d57612e9c61247b565b5b612ea76040612288565b90506000612eb784828501612e72565b6000830152506020612ecb84828501612e72565b60208301525092915050565b600060e08284031215612eed57612eec61247b565b5b612ef76080612288565b9050600082015167ffffffffffffffff811115612f1757612f16612480565b5b612f2384828501612cfe565b600083015250602082015167ffffffffffffffff811115612f4757612f46612480565b5b612f5384828501612d86565b6020830152506040612f6784828501612e0e565b60408301525060a0612f7b84828501612e87565b60608301525092915050565b6000612f9a612f9584612cd2565b612288565b90508083825260208201905060208402830185811115612fbd57612fbc611aa4565b5b835b8181101561300457805167ffffffffffffffff811115612fe257612fe1611a9a565b5b808601612fef8982612ed7565b85526020850194505050602081019050612fbf565b5050509392505050565b600082601f83011261302357613022611a9a565b5b8151613033848260208601612f87565b91505092915050565b60006020828403121561305257613051611a90565b5b600082015167ffffffffffffffff8111156130705761306f611a95565b5b61307c8482850161300e565b91505092915050565b8082525050565b600082825260208201905092915050565b60006130a882611b4c565b6130b2818561308c565b93506130c2818560208601611b68565b6130cb81611b92565b840191505092915050565b600060408301600083015184820360008601526130f3828261309d565b9150506020830151848203602086015261310d828261309d565b9150508091505092915050565b60006040830160008301518482036000860152613137828261309d565b91505060208301518482036020860152613151828261309d565b9150508091505092915050565b60006060820190506131736000830186613085565b818103602083015261318581856130d6565b90508181036040830152613199818461311a565b9050949350505050565b6000602082840312156131b9576131b8611a90565b5b60006131c784828501612af9565b91505092915050565b600060408201905081810360008301526131ea8185611e50565b905081810360208301526131fe8184611e94565b90509392505050565b60006020828403121561321d5761321c611a90565b5b600082015167ffffffffffffffff81111561323b5761323a611a95565b5b61324784828501612b77565b91505092915050565b7f4e487b7100000000000000000000000000000000000000000000000000000000600052603260045260246000fd5b60006020828403121561329557613294611a90565b5b600082015167ffffffffffffffff8111156132b3576132b2611a95565b5b6132bf84828501612ed7565b91505092915050565b600060408301600083015184820360008601526132e5828261309d565b915050602083015184820360208601526132ff828261309d565b9150508091505092915050565b60006040830160008301518482036000860152613329828261309d565b9150506020830151848203602086015261334382826132c8565b9150508091505092915050565b6000604083016000830151848203600086015261336d828261309d565b91505060208301518482036020860152613387828261309d565b9150508091505092915050565b600060408301600083015184820360008601526133b1828261309d565b915050602083015184820360208601526133cb8282613350565b9150508091505092915050565b6133e181611c94565b82525050565b6060820160008201516133fd60008501826133d8565b50602082015161341060208501826133d8565b50604082015161342360408501826133d8565b50505050565b61343281612065565b82525050565b60408201600082015161344e6000850182613429565b5060208201516134616020850182613429565b50505050565b600060e0830160008301518482036000860152613484828261330c565b9150506020830151848203602086015261349e8282613394565b91505060408301516134b360408601826133e7565b5060608301516134c660a0860182613438565b508091505092915050565b60006040820190506134e66000830185613085565b81810360208301526134f88184613467565b90509392505050565b6000806040838503121561351857613517611a90565b5b600061352685828601612a97565b925050602083015167ffffffffffffffff81111561354757613546611a95565b5b61355385828601612ed7565b9150509250929050565b7f4e487b7100000000000000000000000000000000000000000000000000000000600052602260045260246000fd5b600060028204905060018216806135a457607f821691505b6020821081036135b7576135b661355d565b5b50919050565b6135c681612065565b82525050565b60006040820190506135e16000830185613085565b6135ee60208301846135bd565b9392505050565b600081905092915050565b600061360b82611b4c565b61361581856135f5565b9350613625818560208601611b68565b80840191505092915050565b6000819050919050565b61364c61364782612065565b613631565b82525050565b600061365e8288613600565b915061366a8287613600565b91506136768286613600565b91506136828285613600565b915061368e828461363b565b6020820191508190509695505050505050565b7f4e487b7100000000000000000000000000000000000000000000000000000000600052601260045260246000fd5b60006136db82612065565b91506136e683612065565b9250826136f6576136f56136a1565b5b828206905092915050565b7f4f766572666c6f77206572726f72000000000000000000000000000000000000600082015250565b6000613737600e83611b57565b915061374282613701565b602082019050919050565b600060208201905081810360008301526137668161372a565b9050919050565b7f4e487b7100000000000000000000000000000000000000000000000000000000600052601160045260246000fd5b60006137a782612065565b91507fffffffffffffffffffffffffffffffffffffffffffffffffffffffffffffffff82036137d9576137d861376d565b5b600182019050919050565b60006137ef82612065565b91506137fa83612065565b92508282019050808211156138125761381161376d565b5b92915050565b7f5468617420656c656d656e74206973206e6f7420696e636c756465642e000000600082015250565b600061384e601d83611b57565b915061385982613818565b602082019050919050565b6000602082019050818103600083015261387d81613841565b9050919050565b600061388f82612ad8565b915061389a83612ad8565b9250828201905082811215600083121683821260008412151617156138c2576138c161376d565b5b9291505056fea2646970667358221220004ea2a1d43d91ddfce1f8e303f161a32e33f4549a5625cc542b38ed7c40ad6864736f6c63430008130033",
  "immutableReferences": {},
  "source": "// SPDX-License-Identifier: MIT\npragma solidity >=0.4.22 <0.9.0;\n\nimport \"./Base.sol\";\nimport \"./ACBF.sol\";\nimport \"./OAMC.sol\";\nimport \"./SAMC.sol\";\nimport \"./BloomFilter.sol\";\nimport \"./Cache.sol\";\n\ncontract GRB is Base{\n    using Cache for Cache.CacheList;\n    using BloomFilter for BloomFilter.Filter;\n\n    ACBF pmc = ACBF(0xfDae559f53daeDdEc7033768b80C45fFD14A31e4);\n    OAMC oamc = OAMC(0xa13862cFd27bC61378Ce0e8fc1E3326f70174e5c);\n    SAMC samc = SAMC(0x85D601869E4E5F180005784c4E76fF12626B8c9D);\n\n    Cache.CacheList cache;\n    BloomFilter.Filter filter;\n\n    constructor() {\n        filter.init(10000, 7);\n    }\n\n    function getSubjectAttribute(string calldata id) public view returns(string memory, string memory) {\n        return (samc.getSubject(id).name, samc.getSubject(id).role);\n    }\n\n    function getObjectAttribute(string calldata id) public view returns(string memory, string memory) {\n        return (oamc.getObject(id).name, oamc.getObject(id).place);\n    }\n\n    function getStart() public view returns(uint) {\n        return (cache.start);\n    }\n\n    function getPolicy(string memory subjectName, string memory role, string memory objectName, string memory place) public returns(bool, bool, bool){\n        if(filter.check(subjectName, role, objectName, place)) {\n            int indexCache = cache.check(SubjectAttribute(subjectName, role), ObjectAttribute(objectName, place));\n            if(indexCache < 0) {\n                int[] memory index = pmc.findMatchPolicy(SubjectAttribute(subjectName, role), ObjectAttribute(objectName, place));\n                if(index.length == 1){\n                    if(index[0] < 0){\n                        return (false, false, false);\n                    }\n                    else{\n                        Policy memory policy = pmc.getPolicy(uint(index[0]));\n                        if(block.timestamp >= policy.context.start && block.timestamp <= policy.context.end){\n                            bool flagRemoval = false;\n                           Policy memory removedPolicy;\n                            filter.add(policy.subject.attribute.name, policy.subject.attribute.role, policy.object.attribute.name, policy.object.attribute.place);\n                            (flagRemoval, removedPolicy) = cache.add(policy);\n                            if(flagRemoval) {\n                                filter.remove(removedPolicy.subject.attribute.name, removedPolicy.subject.attribute.role, removedPolicy.object.attribute.name, removedPolicy.object.attribute.place);\n                            }\n                            return (policy.action.read, policy.action.write, policy.action.execute);\n                        }\n                        else{\n                            return (false, false, false);\n                        }\n                    }\n                }\n                else{\n                    return (false, false, false);\n                }\n            }\n            else {\n                Policy memory policy = cache.buffer[uint(indexCache)];\n                if(block.timestamp >= policy.context.start && block.timestamp <= policy.context.end){\n                    cache.update(uint(indexCache));\n                    return (policy.action.read, policy.action.write, policy.action.execute);\n                }\n                else{\n                    return (false, false, false);\n                }\n            }\n        }\n        else {\n            int[] memory index = pmc.findMatchPolicy(SubjectAttribute(subjectName, role), ObjectAttribute(objectName, place));\n                if(index.length == 1){\n                    if(index[0] < 0){\n                        return (false, false, false);\n                    }\n                    else{\n                        Policy memory policy = pmc.getPolicy(uint(index[0]));\n                        if(block.timestamp >= policy.context.start && block.timestamp <= policy.context.end){\n                            bool flagRemoval = false;\n                            Policy memory removedPolicy;\n                            filter.add(policy.subject.attribute.name, policy.subject.attribute.role, policy.object.attribute.name, policy.object.attribute.place);\n                            (flagRemoval, removedPolicy) = cache.add(policy);\n                            if(flagRemoval) {\n                                filter.remove(removedPolicy.subject.attribute.name, removedPolicy.subject.attribute.role, removedPolicy.object.attribute.name, removedPolicy.object.attribute.place);\n                            }\n                            return (policy.action.read, policy.action.write, policy.action.execute);\n                        }\n                        else{\n                            return (false, false, false);\n                        }\n                    }\n                }\n                else{\n                    return (false, false, false);\n                }\n        }\n    }\n\n    function getAccessResult(string calldata subjectId, string calldata objectId) public returns(bool, bool, bool){\n        string memory subjectName;\n        string memory role;\n        string memory objectName;\n        string memory place;\n\n        (subjectName, role) = getSubjectAttribute(subjectId);\n        (objectName, place) = getObjectAttribute(objectId);\n\n        bool read = false;\n        bool write = false;\n        bool execute = false;\n\n        (read, write, execute) = getPolicy(subjectName, role, objectName, place);\n\n        return (read, write, execute);\n\n    }\n\n    function addPolicy(Subject calldata subject, Object calldata object, Action calldata action, Context calldata context) public returns(SubjectAttribute memory, ObjectAttribute memory, Policy[] memory) {\n        samc.addSubject(subject.id, subject.attribute.name, subject.attribute.role);\n        oamc.addObject(object.id, object.attribute.name, object.attribute.place);\n        pmc.addPolicy(subject, object, action, context);\n\n        SubjectAttribute memory s = samc.getSubject(subject.id);\n        ObjectAttribute memory o = oamc.getObject(object.id);\n        Policy[] memory p = pmc.getPolicies();\n\n        return(s, o, p);\n    }\n}",
  "sourcePath": "/Users/rokurock/ACBF GRB/abacforethereum/contracts/GRB.sol",
  "compiler": {
    "name": "solc",
    "version": "0.8.19+commit.7dd6d404.Emscripten.clang"
  },
  "schemaVersion": "3.4.16",
  "updatedAt": "2024-02-28T09:24:11.586Z",
  "devdoc": {
    "kind": "dev",
    "methods": {},
    "version": 1
  },
  "userdoc": {
    "kind": "user",
    "methods": {},
    "version": 1
  }
}