{
  "contractName": "OAMC",
  "abi": [
    {
      "inputs": [
        {
          "internalType": "string",
          "name": "id",
          "type": "string"
        },
        {
          "internalType": "string",
          "name": "name",
          "type": "string"
        },
        {
          "internalType": "string",
          "name": "place",
          "type": "string"
        }
      ],
      "name": "addObject",
      "outputs": [],
      "stateMutability": "nonpayable",
      "type": "function"
    },
    {
      "inputs": [
        {
          "internalType": "string",
          "name": "id",
          "type": "string"
        }
      ],
      "name": "deleteObject",
      "outputs": [],
      "stateMutability": "nonpayable",
      "type": "function"
    },
    {
      "inputs": [
        {
          "internalType": "string",
          "name": "id",
          "type": "string"
        }
      ],
      "name": "getObject",
      "outputs": [
        {
          "components": [
            {
              "internalType": "string",
              "name": "name",
              "type": "string"
            },
            {
              "internalType": "string",
              "name": "place",
              "type": "string"
            }
          ],
          "internalType": "struct Base.ObjectAttribute",
          "name": "",
          "type": "tuple"
        }
      ],
      "stateMutability": "view",
      "type": "function"
    }
  ],
  "bytecode": "0x608060405234801561001057600080fd5b506109a5806100206000396000f3fe608060405234801561001057600080fd5b50600436106100415760003560e01c80630153ea91146100465780632d7cb60014610076578063bcef3f2f14610092575b600080fd5b610060600480360381019061005b9190610400565b6100ae565b60405161006d9190610521565b60405180910390f35b610090600480360381019061008b9190610400565b610215565b005b6100ac60048036038101906100a79190610543565b610273565b005b6100b661031a565b60008084846040516100c9929190610636565b90815260200160405180910390206001016040518060400160405290816000820180546100f59061067e565b80601f01602080910402602001604051908101604052809291908181526020018280546101219061067e565b801561016e5780601f106101435761010080835404028352916020019161016e565b820191906000526020600020905b81548152906001019060200180831161015157829003601f168201915b505050505081526020016001820180546101879061067e565b80601f01602080910402602001604051908101604052809291908181526020018280546101b39061067e565b80156102005780601f106101d557610100808354040283529160200191610200565b820191906000526020600020905b8154815290600101906020018083116101e357829003601f168201915b50505050508152505090508091505092915050565b60008282604051610227929190610636565b9081526020016040518091039020600080820160006102469190610334565b600182016000808201600061025b9190610334565b60018201600061026b9190610334565b505050505050565b858560008888604051610287929190610636565b908152602001604051809103902060000191826102a592919061089f565b508383600088886040516102ba929190610636565b908152602001604051809103902060010160000191826102db92919061089f565b508181600088886040516102f0929190610636565b9081526020016040518091039020600101600101918261031192919061089f565b50505050505050565b604051806040016040528060608152602001606081525090565b5080546103409061067e565b6000825580601f106103525750610371565b601f0160209004906000526020600020908101906103709190610374565b5b50565b5b8082111561038d576000816000905550600101610375565b5090565b600080fd5b600080fd5b600080fd5b600080fd5b600080fd5b60008083601f8401126103c0576103bf61039b565b5b8235905067ffffffffffffffff8111156103dd576103dc6103a0565b5b6020830191508360018202830111156103f9576103f86103a5565b5b9250929050565b6000806020838503121561041757610416610391565b5b600083013567ffffffffffffffff81111561043557610434610396565b5b610441858286016103aa565b92509250509250929050565b600081519050919050565b600082825260208201905092915050565b60005b8381101561048757808201518184015260208101905061046c565b60008484015250505050565b6000601f19601f8301169050919050565b60006104af8261044d565b6104b98185610458565b93506104c9818560208601610469565b6104d281610493565b840191505092915050565b600060408301600083015184820360008601526104fa82826104a4565b9150506020830151848203602086015261051482826104a4565b9150508091505092915050565b6000602082019050818103600083015261053b81846104dd565b905092915050565b600080600080600080606087890312156105605761055f610391565b5b600087013567ffffffffffffffff81111561057e5761057d610396565b5b61058a89828a016103aa565b9650965050602087013567ffffffffffffffff8111156105ad576105ac610396565b5b6105b989828a016103aa565b9450945050604087013567ffffffffffffffff8111156105dc576105db610396565b5b6105e889828a016103aa565b92509250509295509295509295565b600081905092915050565b82818337600083830152505050565b600061061d83856105f7565b935061062a838584610602565b82840190509392505050565b6000610643828486610611565b91508190509392505050565b7f4e487b7100000000000000000000000000000000000000000000000000000000600052602260045260246000fd5b6000600282049050600182168061069657607f821691505b6020821081036106a9576106a861064f565b5b50919050565b600082905092915050565b7f4e487b7100000000000000000000000000000000000000000000000000000000600052604160045260246000fd5b60008190508160005260206000209050919050565b60006020601f8301049050919050565b600082821b905092915050565b60006008830261074b7fffffffffffffffffffffffffffffffffffffffffffffffffffffffffffffffff8261070e565b610755868361070e565b95508019841693508086168417925050509392505050565b6000819050919050565b6000819050919050565b600061079c6107976107928461076d565b610777565b61076d565b9050919050565b6000819050919050565b6107b683610781565b6107ca6107c2826107a3565b84845461071b565b825550505050565b600090565b6107df6107d2565b6107ea8184846107ad565b505050565b5b8181101561080e576108036000826107d7565b6001810190506107f0565b5050565b601f82111561085357610824816106e9565b61082d846106fe565b8101602085101561083c578190505b610850610848856106fe565b8301826107ef565b50505b505050565b600082821c905092915050565b600061087660001984600802610858565b1980831691505092915050565b600061088f8383610865565b9150826002028217905092915050565b6108a983836106af565b67ffffffffffffffff8111156108c2576108c16106ba565b5b6108cc825461067e565b6108d7828285610812565b6000601f83116001811461090657600084156108f4578287013590505b6108fe8582610883565b865550610966565b601f198416610914866106e9565b60005b8281101561093c57848901358255600182019150602085019450602081019050610917565b868310156109595784890135610955601f891682610865565b8355505b6001600288020188555050505b5050505050505056fea26469706673582212206a71ad387c98d372a3e6af469ec37c0c345be8595502e37789aace18a83ff12e64736f6c63430008130033",
  "immutableReferences": {},
  "source": "// SPDX-License-Identifier: MIT\npragma solidity >=0.4.22 <0.9.0;\n\nimport \"./Base.sol\";\n\ncontract OAMC is Base{\n    mapping(string => Object) objectList;\n\n    function addObject(string calldata id, string calldata name, string calldata place) public {\n        objectList[id].id = id;\n        objectList[id].attribute.name = name;\n        objectList[id].attribute.place = place;\n    }\n\n    function deleteObject(string calldata id) public {\n        delete objectList[id];\n    }\n    function getObject(string calldata id) public view returns(ObjectAttribute memory) {\n        ObjectAttribute memory a = objectList[id].attribute;\n        return a;\n    }\n\n}\n\n",
  "sourcePath": "/Users/rokurock/ACBF GRB/abacforethereum/contracts/OAMC.sol",
  "compiler": {
    "name": "solc",
    "version": "0.8.19+commit.7dd6d404.Emscripten.clang"
  },
  "schemaVersion": "3.4.16",
  "updatedAt": "2024-02-28T09:24:11.591Z",
  "devdoc": {
    "kind": "dev",
    "methods": {},
    "version": 1
  },
  "userdoc": {
    "kind": "user",
    "methods": {},
    "version": 1
  }
}