{
  "contractName": "PMC",
  "abi": [
    {
      "inputs": [
        {
          "internalType": "uint256",
          "name": "index",
          "type": "uint256"
        }
      ],
      "name": "getPolicy",
      "outputs": [
        {
          "components": [
            {
              "components": [
                {
                  "internalType": "string",
                  "name": "id",
                  "type": "string"
                },
                {
                  "components": [
                    {
                      "internalType": "string",
                      "name": "name",
                      "type": "string"
                    },
                    {
                      "internalType": "string",
                      "name": "role",
                      "type": "string"
                    }
                  ],
                  "internalType": "struct Base.SubjectAttribute",
                  "name": "attribute",
                  "type": "tuple"
                }
              ],
              "internalType": "struct Base.Subject",
              "name": "subject",
              "type": "tuple"
            },
            {
              "components": [
                {
                  "internalType": "string",
                  "name": "id",
                  "type": "string"
                },
                {
                  "components": [
                    {
                      "internalType": "string",
                      "name": "name",
                      "type": "string"
                    },
                    {
                      "internalType": "string",
                      "name": "place",
                      "type": "string"
                    }
                  ],
                  "internalType": "struct Base.ObjectAttribute",
                  "name": "attribute",
                  "type": "tuple"
                }
              ],
              "internalType": "struct Base.Object",
              "name": "object",
              "type": "tuple"
            },
            {
              "components": [
                {
                  "internalType": "bool",
                  "name": "write",
                  "type": "bool"
                },
                {
                  "internalType": "bool",
                  "name": "read",
                  "type": "bool"
                },
                {
                  "internalType": "bool",
                  "name": "execute",
                  "type": "bool"
                }
              ],
              "internalType": "struct Base.Action",
              "name": "action",
              "type": "tuple"
            },
            {
              "components": [
                {
                  "internalType": "uint256",
                  "name": "start",
                  "type": "uint256"
                },
                {
                  "internalType": "uint256",
                  "name": "end",
                  "type": "uint256"
                }
              ],
              "internalType": "struct Base.Context",
              "name": "context",
              "type": "tuple"
            }
          ],
          "internalType": "struct Base.Policy",
          "name": "",
          "type": "tuple"
        }
      ],
      "stateMutability": "view",
      "type": "function"
    },
    {
      "inputs": [],
      "name": "getPolicies",
      "outputs": [
        {
          "components": [
            {
              "components": [
                {
                  "internalType": "string",
                  "name": "id",
                  "type": "string"
                },
                {
                  "components": [
                    {
                      "internalType": "string",
                      "name": "name",
                      "type": "string"
                    },
                    {
                      "internalType": "string",
                      "name": "role",
                      "type": "string"
                    }
                  ],
                  "internalType": "struct Base.SubjectAttribute",
                  "name": "attribute",
                  "type": "tuple"
                }
              ],
              "internalType": "struct Base.Subject",
              "name": "subject",
              "type": "tuple"
            },
            {
              "components": [
                {
                  "internalType": "string",
                  "name": "id",
                  "type": "string"
                },
                {
                  "components": [
                    {
                      "internalType": "string",
                      "name": "name",
                      "type": "string"
                    },
                    {
                      "internalType": "string",
                      "name": "place",
                      "type": "string"
                    }
                  ],
                  "internalType": "struct Base.ObjectAttribute",
                  "name": "attribute",
                  "type": "tuple"
                }
              ],
              "internalType": "struct Base.Object",
              "name": "object",
              "type": "tuple"
            },
            {
              "components": [
                {
                  "internalType": "bool",
                  "name": "write",
                  "type": "bool"
                },
                {
                  "internalType": "bool",
                  "name": "read",
                  "type": "bool"
                },
                {
                  "internalType": "bool",
                  "name": "execute",
                  "type": "bool"
                }
              ],
              "internalType": "struct Base.Action",
              "name": "action",
              "type": "tuple"
            },
            {
              "components": [
                {
                  "internalType": "uint256",
                  "name": "start",
                  "type": "uint256"
                },
                {
                  "internalType": "uint256",
                  "name": "end",
                  "type": "uint256"
                }
              ],
              "internalType": "struct Base.Context",
              "name": "context",
              "type": "tuple"
            }
          ],
          "internalType": "struct Base.Policy[]",
          "name": "",
          "type": "tuple[]"
        }
      ],
      "stateMutability": "view",
      "type": "function"
    },
    {
      "inputs": [
        {
          "components": [
            {
              "internalType": "string",
              "name": "id",
              "type": "string"
            },
            {
              "components": [
                {
                  "internalType": "string",
                  "name": "name",
                  "type": "string"
                },
                {
                  "internalType": "string",
                  "name": "role",
                  "type": "string"
                }
              ],
              "internalType": "struct Base.SubjectAttribute",
              "name": "attribute",
              "type": "tuple"
            }
          ],
          "internalType": "struct Base.Subject",
          "name": "subject",
          "type": "tuple"
        },
        {
          "components": [
            {
              "internalType": "string",
              "name": "id",
              "type": "string"
            },
            {
              "components": [
                {
                  "internalType": "string",
                  "name": "name",
                  "type": "string"
                },
                {
                  "internalType": "string",
                  "name": "place",
                  "type": "string"
                }
              ],
              "internalType": "struct Base.ObjectAttribute",
              "name": "attribute",
              "type": "tuple"
            }
          ],
          "internalType": "struct Base.Object",
          "name": "object",
          "type": "tuple"
        },
        {
          "components": [
            {
              "internalType": "bool",
              "name": "write",
              "type": "bool"
            },
            {
              "internalType": "bool",
              "name": "read",
              "type": "bool"
            },
            {
              "internalType": "bool",
              "name": "execute",
              "type": "bool"
            }
          ],
          "internalType": "struct Base.Action",
          "name": "action",
          "type": "tuple"
        },
        {
          "components": [
            {
              "internalType": "uint256",
              "name": "start",
              "type": "uint256"
            },
            {
              "internalType": "uint256",
              "name": "end",
              "type": "uint256"
            }
          ],
          "internalType": "struct Base.Context",
          "name": "context",
          "type": "tuple"
        }
      ],
      "name": "addPolicy",
      "outputs": [
        {
          "internalType": "bool",
          "name": "",
          "type": "bool"
        },
        {
          "internalType": "int256[]",
          "name": "",
          "type": "int256[]"
        }
      ],
      "stateMutability": "nonpayable",
      "type": "function"
    },
    {
      "inputs": [
        {
          "components": [
            {
              "internalType": "string",
              "name": "id",
              "type": "string"
            },
            {
              "components": [
                {
                  "internalType": "string",
                  "name": "name",
                  "type": "string"
                },
                {
                  "internalType": "string",
                  "name": "role",
                  "type": "string"
                }
              ],
              "internalType": "struct Base.SubjectAttribute",
              "name": "attribute",
              "type": "tuple"
            }
          ],
          "internalType": "struct Base.Subject",
          "name": "subject",
          "type": "tuple"
        },
        {
          "components": [
            {
              "internalType": "string",
              "name": "id",
              "type": "string"
            },
            {
              "components": [
                {
                  "internalType": "string",
                  "name": "name",
                  "type": "string"
                },
                {
                  "internalType": "string",
                  "name": "place",
                  "type": "string"
                }
              ],
              "internalType": "struct Base.ObjectAttribute",
              "name": "attribute",
              "type": "tuple"
            }
          ],
          "internalType": "struct Base.Object",
          "name": "object",
          "type": "tuple"
        },
        {
          "components": [
            {
              "internalType": "bool",
              "name": "write",
              "type": "bool"
            },
            {
              "internalType": "bool",
              "name": "read",
              "type": "bool"
            },
            {
              "internalType": "bool",
              "name": "execute",
              "type": "bool"
            }
          ],
          "internalType": "struct Base.Action",
          "name": "action",
          "type": "tuple"
        },
        {
          "components": [
            {
              "internalType": "uint256",
              "name": "start",
              "type": "uint256"
            },
            {
              "internalType": "uint256",
              "name": "end",
              "type": "uint256"
            }
          ],
          "internalType": "struct Base.Context",
          "name": "context",
          "type": "tuple"
        }
      ],
      "name": "updatePolicy",
      "outputs": [
        {
          "internalType": "bool",
          "name": "",
          "type": "bool"
        },
        {
          "internalType": "int256[]",
          "name": "",
          "type": "int256[]"
        }
      ],
      "stateMutability": "nonpayable",
      "type": "function"
    },
    {
      "inputs": [
        {
          "components": [
            {
              "internalType": "string",
              "name": "id",
              "type": "string"
            },
            {
              "components": [
                {
                  "internalType": "string",
                  "name": "name",
                  "type": "string"
                },
                {
                  "internalType": "string",
                  "name": "role",
                  "type": "string"
                }
              ],
              "internalType": "struct Base.SubjectAttribute",
              "name": "attribute",
              "type": "tuple"
            }
          ],
          "internalType": "struct Base.Subject",
          "name": "subject",
          "type": "tuple"
        },
        {
          "components": [
            {
              "internalType": "string",
              "name": "id",
              "type": "string"
            },
            {
              "components": [
                {
                  "internalType": "string",
                  "name": "name",
                  "type": "string"
                },
                {
                  "internalType": "string",
                  "name": "place",
                  "type": "string"
                }
              ],
              "internalType": "struct Base.ObjectAttribute",
              "name": "attribute",
              "type": "tuple"
            }
          ],
          "internalType": "struct Base.Object",
          "name": "object",
          "type": "tuple"
        }
      ],
      "name": "deletePolicy",
      "outputs": [
        {
          "internalType": "bool",
          "name": "",
          "type": "bool"
        }
      ],
      "stateMutability": "nonpayable",
      "type": "function"
    },
    {
      "inputs": [
        {
          "components": [
            {
              "internalType": "string",
              "name": "name",
              "type": "string"
            },
            {
              "internalType": "string",
              "name": "role",
              "type": "string"
            }
          ],
          "internalType": "struct Base.SubjectAttribute",
          "name": "sa",
          "type": "tuple"
        },
        {
          "components": [
            {
              "internalType": "string",
              "name": "name",
              "type": "string"
            },
            {
              "internalType": "string",
              "name": "place",
              "type": "string"
            }
          ],
          "internalType": "struct Base.ObjectAttribute",
          "name": "oa",
          "type": "tuple"
        }
      ],
      "name": "findMatchPolicy",
      "outputs": [
        {
          "internalType": "int256[]",
          "name": "",
          "type": "int256[]"
        }
      ],
      "stateMutability": "view",
      "type": "function"
    },
    {
      "inputs": [
        {
          "components": [
            {
              "internalType": "string",
              "name": "name",
              "type": "string"
            },
            {
              "internalType": "string",
              "name": "role",
              "type": "string"
            }
          ],
          "internalType": "struct Base.SubjectAttribute",
          "name": "sa",
          "type": "tuple"
        },
        {
          "components": [
            {
              "internalType": "string",
              "name": "name",
              "type": "string"
            },
            {
              "internalType": "string",
              "name": "place",
              "type": "string"
            }
          ],
          "internalType": "struct Base.ObjectAttribute",
          "name": "oa",
          "type": "tuple"
        }
      ],
      "name": "findExactMatchPolicy",
      "outputs": [
        {
          "internalType": "int256",
          "name": "",
          "type": "int256"
        }
      ],
      "stateMutability": "view",
      "type": "function"
    }
  ],
  "bytecode": "0x608060405234801561001057600080fd5b50612f8f806100206000396000f3fe608060405234801561001057600080fd5b506004361061007d5760003560e01c806392db3b6f1161005b57806392db3b6f14610101578063ba58128c14610131578063e610341d14610162578063ffedc5ff146101925761007d565b80632b07fce3146100825780633b04f6f1146100b25780637f94ce6e146100d0575b600080fd5b61009c60048036038101906100979190611d12565b6101c2565b6040516100a99190611fe4565b60405180910390f35b6100ba610647565b6040516100c79190612132565b60405180910390f35b6100ea60048036038101906100e591906121d5565b610aef565b6040516100f892919061234b565b60405180910390f35b61011b600480360381019061011691906123b9565b610d3a565b6040516101289190612440565b60405180910390f35b61014b600480360381019061014691906121d5565b610fcf565b60405161015992919061234b565b60405180910390f35b61017c600480360381019061017791906123b9565b611243565b604051610189919061245b565b60405180910390f35b6101ac60048036038101906101a7919061247d565b611a11565b6040516101b991906124f5565b60405180910390f35b6101ca611b76565b600082815481106101de576101dd612510565b5b9060005260206000209060090201604051806080016040529081600082016040518060400160405290816000820180546102179061256e565b80601f01602080910402602001604051908101604052809291908181526020018280546102439061256e565b80156102905780601f1061026557610100808354040283529160200191610290565b820191906000526020600020905b81548152906001019060200180831161027357829003601f168201915b50505050508152602001600182016040518060400160405290816000820180546102b99061256e565b80601f01602080910402602001604051908101604052809291908181526020018280546102e59061256e565b80156103325780601f1061030757610100808354040283529160200191610332565b820191906000526020600020905b81548152906001019060200180831161031557829003601f168201915b5050505050815260200160018201805461034b9061256e565b80601f01602080910402602001604051908101604052809291908181526020018280546103779061256e565b80156103c45780601f10610399576101008083540402835291602001916103c4565b820191906000526020600020905b8154815290600101906020018083116103a757829003601f168201915b505050505081525050815250508152602001600382016040518060400160405290816000820180546103f59061256e565b80601f01602080910402602001604051908101604052809291908181526020018280546104219061256e565b801561046e5780601f106104435761010080835404028352916020019161046e565b820191906000526020600020905b81548152906001019060200180831161045157829003601f168201915b50505050508152602001600182016040518060400160405290816000820180546104979061256e565b80601f01602080910402602001604051908101604052809291908181526020018280546104c39061256e565b80156105105780601f106104e557610100808354040283529160200191610510565b820191906000526020600020905b8154815290600101906020018083116104f357829003601f168201915b505050505081526020016001820180546105299061256e565b80601f01602080910402602001604051908101604052809291908181526020018280546105559061256e565b80156105a25780601f10610577576101008083540402835291602001916105a2565b820191906000526020600020905b81548152906001019060200180831161058557829003601f168201915b505050505081525050815250508152602001600682016040518060600160405290816000820160009054906101000a900460ff161515151581526020016000820160019054906101000a900460ff161515151581526020016000820160029054906101000a900460ff16151515158152505081526020016007820160405180604001604052908160008201548152602001600182015481525050815250509050919050565b60606000805480602002602001604051908101604052809291908181526020016000905b82821015610ae65783829060005260206000209060090201604051806080016040529081600082016040518060400160405290816000820180546106ae9061256e565b80601f01602080910402602001604051908101604052809291908181526020018280546106da9061256e565b80156107275780601f106106fc57610100808354040283529160200191610727565b820191906000526020600020905b81548152906001019060200180831161070a57829003601f168201915b50505050508152602001600182016040518060400160405290816000820180546107509061256e565b80601f016020809104026020016040519081016040528092919081815260200182805461077c9061256e565b80156107c95780601f1061079e576101008083540402835291602001916107c9565b820191906000526020600020905b8154815290600101906020018083116107ac57829003601f168201915b505050505081526020016001820180546107e29061256e565b80601f016020809104026020016040519081016040528092919081815260200182805461080e9061256e565b801561085b5780601f106108305761010080835404028352916020019161085b565b820191906000526020600020905b81548152906001019060200180831161083e57829003601f168201915b5050505050815250508152505081526020016003820160405180604001604052908160008201805461088c9061256e565b80601f01602080910402602001604051908101604052809291908181526020018280546108b89061256e565b80156109055780601f106108da57610100808354040283529160200191610905565b820191906000526020600020905b8154815290600101906020018083116108e857829003601f168201915b505050505081526020016001820160405180604001604052908160008201805461092e9061256e565b80601f016020809104026020016040519081016040528092919081815260200182805461095a9061256e565b80156109a75780601f1061097c576101008083540402835291602001916109a7565b820191906000526020600020905b81548152906001019060200180831161098a57829003601f168201915b505050505081526020016001820180546109c09061256e565b80601f01602080910402602001604051908101604052809291908181526020018280546109ec9061256e565b8015610a395780601f10610a0e57610100808354040283529160200191610a39565b820191906000526020600020905b815481529060010190602001808311610a1c57829003601f168201915b505050505081525050815250508152602001600682016040518060600160405290816000820160009054906101000a900460ff161515151581526020016000820160019054906101000a900460ff161515151581526020016000820160029054906101000a900460ff16151515158152505081526020016007820160405180604001604052908160008201548152602001600182015481525050815250508152602001906001019061066b565b50505050905090565b600060606000610b1d878060200190610b0891906125ae565b878060200190610b1891906125d6565b611243565b90507fffffffffffffffffffffffffffffffffffffffffffffffffffffffffffffffff81600081518110610b5457610b53612510565b5b602002602001015103610d28576000604051806080016040528089610b789061284d565b815260200188610b8790612970565b815260200187803603810190610b9d9190612a13565b815260200186803603810190610bb39190612a90565b81525090806001815401808255809150506001900390600052602060002090600902016000909190919091506000820151816000016000820151816000019081610bfd9190612c69565b506020820151816001016000820151816000019081610c1c9190612c69565b506020820151816001019081610c329190612c69565b50505050506020820151816003016000820151816000019081610c559190612c69565b506020820151816001016000820151816000019081610c749190612c69565b506020820151816001019081610c8a9190612c69565b505050505060408201518160060160008201518160000160006101000a81548160ff02191690831515021790555060208201518160000160016101000a81548160ff02191690831515021790555060408201518160000160026101000a81548160ff02191690831515021790555050506060820151816007016000820151816000015560208201518160010155505050506001819250925050610d31565b60008192509250505b94509492505050565b6000807fffffffffffffffffffffffffffffffffffffffffffffffffffffffffffffffff905060008080549050905060005b81811015610fc35760008181548110610d8857610d87612510565b5b9060005260206000209060090201600001600101600001604051602001610daf9190612dc9565b60405160208183030381529060405280519060200120868060000190610dd59190612de0565b604051602001610de6929190612e68565b6040516020818303038152906040528051906020012003610fb05760008181548110610e1557610e14612510565b5b9060005260206000209060090201600001600101600101604051602001610e3c9190612dc9565b60405160208183030381529060405280519060200120868060200190610e629190612de0565b604051602001610e73929190612e68565b6040516020818303038152906040528051906020012003610fb05760008181548110610ea257610ea1612510565b5b9060005260206000209060090201600301600101600001604051602001610ec99190612dc9565b60405160208183030381529060405280519060200120858060000190610eef9190612de0565b604051602001610f00929190612e68565b6040516020818303038152906040528051906020012003610fb05760008181548110610f2f57610f2e612510565b5b9060005260206000209060090201600301600101600101604051602001610f569190612dc9565b60405160208183030381529060405280519060200120858060200190610f7c9190612de0565b604051602001610f8d929190612e68565b6040516020818303038152906040528051906020012003610fb057809250610fc3565b8080610fbb90612eb0565b915050610d6c565b50819250505092915050565b600060606000610ffd878060200190610fe891906125ae565b878060200190610ff891906125d6565b611243565b90507fffffffffffffffffffffffffffffffffffffffffffffffffffffffffffffffff8160008151811061103457611033612510565b5b60200260200101510361104e57600081925092505061123a565b60018151036112315760405180608001604052808861106c9061284d565b81526020018761107b90612970565b8152602001868036038101906110919190612a13565b8152602001858036038101906110a79190612a90565b8152506000826000815181106110c0576110bf612510565b5b6020026020010151815481106110d9576110d8612510565b5b906000526020600020906009020160008201518160000160008201518160000190816111059190612c69565b5060208201518160010160008201518160000190816111249190612c69565b50602082015181600101908161113a9190612c69565b5050505050602082015181600301600082015181600001908161115d9190612c69565b50602082015181600101600082015181600001908161117c9190612c69565b5060208201518160010190816111929190612c69565b505050505060408201518160060160008201518160000160006101000a81548160ff02191690831515021790555060208201518160000160016101000a81548160ff02191690831515021790555060408201518160000160026101000a81548160ff021916908315150217905550505060608201518160070160008201518160000155602082015181600101555050905050600181925092505061123a565b60008192509250505b94509492505050565b60606000808080549050905060008167ffffffffffffffff81111561126b5761126a612603565b5b6040519080825280602002602001820160405280156112995781602001602082028036833780820191505090505b50905060005b828110156118b9576040516020016112b690612f44565b604051602081830303815290604052805190602001208780600001906112dc9190612de0565b6040516020016112ed929190612e68565b60405160208183030381529060405280519060200120141580156113975750600081815481106113205761131f612510565b5b90600052602060002090600902016000016001016000016040516020016113479190612dc9565b6040516020818303038152906040528051906020012087806000019061136d9190612de0565b60405160200161137e929190612e68565b6040516020818303038152906040528051906020012014155b801561141757506040516020016113ad90612f44565b60405160208183030381529060405280519060200120600082815481106113d7576113d6612510565b5b90600052602060002090600902016000016001016000016040516020016113fe9190612dc9565b6040516020818303038152906040528051906020012014155b6118a65760405160200161142a90612f44565b604051602081830303815290604052805190602001208780602001906114509190612de0565b604051602001611461929190612e68565b604051602081830303815290604052805190602001201415801561150b57506000818154811061149457611493612510565b5b90600052602060002090600902016000016001016001016040516020016114bb9190612dc9565b604051602081830303815290604052805190602001208780602001906114e19190612de0565b6040516020016114f2929190612e68565b6040516020818303038152906040528051906020012014155b801561158b575060405160200161152190612f44565b604051602081830303815290604052805190602001206000828154811061154b5761154a612510565b5b90600052602060002090600902016000016001016001016040516020016115729190612dc9565b6040516020818303038152906040528051906020012014155b6118a65760405160200161159e90612f44565b604051602081830303815290604052805190602001208680600001906115c49190612de0565b6040516020016115d5929190612e68565b604051602081830303815290604052805190602001201415801561167f57506000818154811061160857611607612510565b5b906000526020600020906009020160030160010160000160405160200161162f9190612dc9565b604051602081830303815290604052805190602001208680600001906116559190612de0565b604051602001611666929190612e68565b6040516020818303038152906040528051906020012014155b80156116ff575060405160200161169590612f44565b60405160208183030381529060405280519060200120600082815481106116bf576116be612510565b5b90600052602060002090600902016003016001016000016040516020016116e69190612dc9565b6040516020818303038152906040528051906020012014155b6118a65760405160200161171290612f44565b604051602081830303815290604052805190602001208680602001906117389190612de0565b604051602001611749929190612e68565b60405160208183030381529060405280519060200120141580156117f357506000818154811061177c5761177b612510565b5b90600052602060002090600902016003016001016001016040516020016117a39190612dc9565b604051602081830303815290604052805190602001208680602001906117c99190612de0565b6040516020016117da929190612e68565b6040516020818303038152906040528051906020012014155b8015611873575060405160200161180990612f44565b604051602081830303815290604052805190602001206000828154811061183357611832612510565b5b906000526020600020906009020160030160010160010160405160200161185a9190612dc9565b6040516020818303038152906040528051906020012014155b6118a6578082858151811061188b5761188a612510565b5b60200260200101818152505083806118a290612eb0565b9450505b80806118b190612eb0565b91505061129f565b506000830361195d576000600167ffffffffffffffff8111156118df576118de612603565b5b60405190808252806020026020018201604052801561190d5781602001602082028036833780820191505090505b5090507fffffffffffffffffffffffffffffffffffffffffffffffffffffffffffffffff8160008151811061194557611944612510565b5b60200260200101818152505080945050505050611a0b565b60008367ffffffffffffffff81111561197957611978612603565b5b6040519080825280602002602001820160405280156119a75781602001602082028036833780820191505090505b50905060005b84811015611a02578281815181106119c8576119c7612510565b5b60200260200101518282815181106119e3576119e2612510565b5b60200260200101818152505080806119fa90612eb0565b9150506119ad565b50809450505050505b92915050565b600080611a3c848060200190611a2791906125ae565b848060200190611a3791906125d6565b610d3a565b90507fffffffffffffffffffffffffffffffffffffffffffffffffffffffffffffffff8114611b6a5760008181548110611a7957611a78612510565b5b9060005260206000209060090201600080820160008082016000611a9d9190611bb6565b6001820160008082016000611ab29190611bb6565b600182016000611ac29190611bb6565b505050506003820160008082016000611adb9190611bb6565b6001820160008082016000611af09190611bb6565b600182016000611b009190611bb6565b5050505060068201600080820160006101000a81549060ff02191690556000820160016101000a81549060ff02191690556000820160026101000a81549060ff02191690555050600782016000808201600090556001820160009055505050506001915050611b70565b60009150505b92915050565b6040518060800160405280611b89611bf6565b8152602001611b96611c16565b8152602001611ba3611c36565b8152602001611bb0611c5d565b81525090565b508054611bc29061256e565b6000825580601f10611bd45750611bf3565b601f016020900490600052602060002090810190611bf29190611c77565b5b50565b604051806040016040528060608152602001611c10611c94565b81525090565b604051806040016040528060608152602001611c30611cae565b81525090565b60405180606001604052806000151581526020016000151581526020016000151581525090565b604051806040016040528060008152602001600081525090565b5b80821115611c90576000816000905550600101611c78565b5090565b604051806040016040528060608152602001606081525090565b604051806040016040528060608152602001606081525090565b6000604051905090565b600080fd5b600080fd5b6000819050919050565b611cef81611cdc565b8114611cfa57600080fd5b50565b600081359050611d0c81611ce6565b92915050565b600060208284031215611d2857611d27611cd2565b5b6000611d3684828501611cfd565b91505092915050565b600081519050919050565b600082825260208201905092915050565b60005b83811015611d79578082015181840152602081019050611d5e565b60008484015250505050565b6000601f19601f8301169050919050565b6000611da182611d3f565b611dab8185611d4a565b9350611dbb818560208601611d5b565b611dc481611d85565b840191505092915050565b60006040830160008301518482036000860152611dec8282611d96565b91505060208301518482036020860152611e068282611d96565b9150508091505092915050565b60006040830160008301518482036000860152611e308282611d96565b91505060208301518482036020860152611e4a8282611dcf565b9150508091505092915050565b60006040830160008301518482036000860152611e748282611d96565b91505060208301518482036020860152611e8e8282611d96565b9150508091505092915050565b60006040830160008301518482036000860152611eb88282611d96565b91505060208301518482036020860152611ed28282611e57565b9150508091505092915050565b60008115159050919050565b611ef481611edf565b82525050565b606082016000820151611f106000850182611eeb565b506020820151611f236020850182611eeb565b506040820151611f366040850182611eeb565b50505050565b611f4581611cdc565b82525050565b604082016000820151611f616000850182611f3c565b506020820151611f746020850182611f3c565b50505050565b600060e0830160008301518482036000860152611f978282611e13565b91505060208301518482036020860152611fb18282611e9b565b9150506040830151611fc66040860182611efa565b506060830151611fd960a0860182611f4b565b508091505092915050565b60006020820190508181036000830152611ffe8184611f7a565b905092915050565b600081519050919050565b600082825260208201905092915050565b6000819050602082019050919050565b600060e083016000830151848203600086015261204f8282611e13565b915050602083015184820360208601526120698282611e9b565b915050604083015161207e6040860182611efa565b50606083015161209160a0860182611f4b565b508091505092915050565b60006120a88383612032565b905092915050565b6000602082019050919050565b60006120c882612006565b6120d28185612011565b9350836020820285016120e485612022565b8060005b858110156121205784840389528151612101858261209c565b945061210c836120b0565b925060208a019950506001810190506120e8565b50829750879550505050505092915050565b6000602082019050818103600083015261214c81846120bd565b905092915050565b600080fd5b60006040828403121561216f5761216e612154565b5b81905092915050565b60006040828403121561218e5761218d612154565b5b81905092915050565b6000606082840312156121ad576121ac612154565b5b81905092915050565b6000604082840312156121cc576121cb612154565b5b81905092915050565b60008060008060e085870312156121ef576121ee611cd2565b5b600085013567ffffffffffffffff81111561220d5761220c611cd7565b5b61221987828801612159565b945050602085013567ffffffffffffffff81111561223a57612239611cd7565b5b61224687828801612178565b935050604061225787828801612197565b92505060a0612268878288016121b6565b91505092959194509250565b61227d81611edf565b82525050565b600081519050919050565b600082825260208201905092915050565b6000819050602082019050919050565b6000819050919050565b6122c2816122af565b82525050565b60006122d483836122b9565b60208301905092915050565b6000602082019050919050565b60006122f882612283565b612302818561228e565b935061230d8361229f565b8060005b8381101561233e57815161232588826122c8565b9750612330836122e0565b925050600181019050612311565b5085935050505092915050565b60006040820190506123606000830185612274565b818103602083015261237281846122ed565b90509392505050565b60006040828403121561239157612390612154565b5b81905092915050565b6000604082840312156123b0576123af612154565b5b81905092915050565b600080604083850312156123d0576123cf611cd2565b5b600083013567ffffffffffffffff8111156123ee576123ed611cd7565b5b6123fa8582860161237b565b925050602083013567ffffffffffffffff81111561241b5761241a611cd7565b5b6124278582860161239a565b9150509250929050565b61243a816122af565b82525050565b60006020820190506124556000830184612431565b92915050565b6000602082019050818103600083015261247581846122ed565b905092915050565b6000806040838503121561249457612493611cd2565b5b600083013567ffffffffffffffff8111156124b2576124b1611cd7565b5b6124be85828601612159565b925050602083013567ffffffffffffffff8111156124df576124de611cd7565b5b6124eb85828601612178565b9150509250929050565b600060208201905061250a6000830184612274565b92915050565b7f4e487b7100000000000000000000000000000000000000000000000000000000600052603260045260246000fd5b7f4e487b7100000000000000000000000000000000000000000000000000000000600052602260045260246000fd5b6000600282049050600182168061258657607f821691505b6020821081036125995761259861253f565b5b50919050565b600080fd5b600080fd5b600080fd5b6000823560016040038336030381126125ca576125c961259f565b5b80830191505092915050565b6000823560016040038336030381126125f2576125f161259f565b5b80830191505092915050565b600080fd5b7f4e487b7100000000000000000000000000000000000000000000000000000000600052604160045260246000fd5b61263b82611d85565b810181811067ffffffffffffffff8211171561265a57612659612603565b5b80604052505050565b600061266d611cc8565b90506126798282612632565b919050565b600080fd5b600080fd5b600080fd5b600067ffffffffffffffff8211156126a8576126a7612603565b5b6126b182611d85565b9050602081019050919050565b82818337600083830152505050565b60006126e06126db8461268d565b612663565b9050828152602081018484840111156126fc576126fb612688565b5b6127078482856126be565b509392505050565b600082601f83011261272457612723612683565b5b81356127348482602086016126cd565b91505092915050565b600060408284031215612753576127526125fe565b5b61275d6040612663565b9050600082013567ffffffffffffffff81111561277d5761277c61267e565b5b6127898482850161270f565b600083015250602082013567ffffffffffffffff8111156127ad576127ac61267e565b5b6127b98482850161270f565b60208301525092915050565b6000604082840312156127db576127da6125fe565b5b6127e56040612663565b9050600082013567ffffffffffffffff8111156128055761280461267e565b5b6128118482850161270f565b600083015250602082013567ffffffffffffffff8111156128355761283461267e565b5b6128418482850161273d565b60208301525092915050565b600061285936836127c5565b9050919050565b600060408284031215612876576128756125fe565b5b6128806040612663565b9050600082013567ffffffffffffffff8111156128a05761289f61267e565b5b6128ac8482850161270f565b600083015250602082013567ffffffffffffffff8111156128d0576128cf61267e565b5b6128dc8482850161270f565b60208301525092915050565b6000604082840312156128fe576128fd6125fe565b5b6129086040612663565b9050600082013567ffffffffffffffff8111156129285761292761267e565b5b6129348482850161270f565b600083015250602082013567ffffffffffffffff8111156129585761295761267e565b5b61296484828501612860565b60208301525092915050565b600061297c36836128e8565b9050919050565b61298c81611edf565b811461299757600080fd5b50565b6000813590506129a981612983565b92915050565b6000606082840312156129c5576129c46125fe565b5b6129cf6060612663565b905060006129df8482850161299a565b60008301525060206129f38482850161299a565b6020830152506040612a078482850161299a565b60408301525092915050565b600060608284031215612a2957612a28611cd2565b5b6000612a37848285016129af565b91505092915050565b600060408284031215612a5657612a556125fe565b5b612a606040612663565b90506000612a7084828501611cfd565b6000830152506020612a8484828501611cfd565b60208301525092915050565b600060408284031215612aa657612aa5611cd2565b5b6000612ab484828501612a40565b91505092915050565b60008190508160005260206000209050919050565b60006020601f8301049050919050565b600082821b905092915050565b600060088302612b1f7fffffffffffffffffffffffffffffffffffffffffffffffffffffffffffffffff82612ae2565b612b298683612ae2565b95508019841693508086168417925050509392505050565b6000819050919050565b6000612b66612b61612b5c84611cdc565b612b41565b611cdc565b9050919050565b6000819050919050565b612b8083612b4b565b612b94612b8c82612b6d565b848454612aef565b825550505050565b600090565b612ba9612b9c565b612bb4818484612b77565b505050565b5b81811015612bd857612bcd600082612ba1565b600181019050612bba565b5050565b601f821115612c1d57612bee81612abd565b612bf784612ad2565b81016020851015612c06578190505b612c1a612c1285612ad2565b830182612bb9565b50505b505050565b600082821c905092915050565b6000612c4060001984600802612c22565b1980831691505092915050565b6000612c598383612c2f565b9150826002028217905092915050565b612c7282611d3f565b67ffffffffffffffff811115612c8b57612c8a612603565b5b612c95825461256e565b612ca0828285612bdc565b600060209050601f831160018114612cd35760008415612cc1578287015190505b612ccb8582612c4d565b865550612d33565b601f198416612ce186612abd565b60005b82811015612d0957848901518255600182019150602085019450602081019050612ce4565b86831015612d265784890151612d22601f891682612c2f565b8355505b6001600288020188555050505b505050505050565b600081905092915050565b60008154612d538161256e565b612d5d8186612d3b565b94506001821660008114612d785760018114612d8d57612dc0565b60ff1983168652811515820286019350612dc0565b612d9685612abd565b60005b83811015612db857815481890152600182019150602081019050612d99565b838801955050505b50505092915050565b6000612dd58284612d46565b915081905092915050565b60008083356001602003843603038112612dfd57612dfc61259f565b5b80840192508235915067ffffffffffffffff821115612e1f57612e1e6125a4565b5b602083019250600182023603831315612e3b57612e3a6125a9565b5b509250929050565b6000612e4f8385612d3b565b9350612e5c8385846126be565b82840190509392505050565b6000612e75828486612e43565b91508190509392505050565b7f4e487b7100000000000000000000000000000000000000000000000000000000600052601160045260246000fd5b6000612ebb82611cdc565b91507fffffffffffffffffffffffffffffffffffffffffffffffffffffffffffffffff8203612eed57612eec612e81565b5b600182019050919050565b7f2a00000000000000000000000000000000000000000000000000000000000000600082015250565b6000612f2e600183612d3b565b9150612f3982612ef8565b600182019050919050565b6000612f4f82612f21565b915081905091905056fea26469706673582212207a4a96fd62025b8ddc8a254cb6ee8ee72a79b95951aef5cdcd8291d42dc10faa64736f6c63430008130033",
  "immutableReferences": {},
  "source": "// SPDX-License-Identifier: MIT\npragma solidity >=0.4.22 <0.9.0;\n\nimport \"./Base.sol\";\n\ncontract PMC is Base{\n\n    Policy[] policyList;\n\n    function getPolicy(uint index) public view returns(Policy memory){\n        return policyList[index];\n    }\n\n    function getPolicies() public view returns(Policy[] memory){\n        return policyList;\n    }\n\n    function addPolicy(Subject calldata subject, Object calldata object, Action calldata action, Context calldata context) public returns(bool, int[] memory){\n        int[] memory flag = findMatchPolicy(subject.attribute, object.attribute);\n        if(flag[0] == -1) {\n            policyList.push(Policy(subject, object, action, context));\n            return (true, flag);\n        }\n        return (false, flag);\n    }\n\n    function updatePolicy(Subject calldata subject, Object calldata object, Action calldata action, Context calldata context) public returns(bool, int[] memory){\n        int[] memory flag = findMatchPolicy(subject.attribute, object.attribute);\n        if(flag[0] == -1) {\n            return (false, flag);\n        }\n        if(flag.length == 1){\n            policyList[uint(flag[0])] = Policy(subject, object, action, context);\n            return (true, flag);\n        }\n        else {\n            return (false, flag);\n        }\n    }\n\n    function deletePolicy(Subject calldata subject, Object calldata object) public returns(bool) {\n        int flag = findExactMatchPolicy(subject.attribute, object.attribute);\n        if(flag != -1) {\n            delete policyList[uint(flag)];\n            return true;\n        }\n        return false;\n    }\n\n    function findMatchPolicy(SubjectAttribute calldata sa, ObjectAttribute calldata oa) public view returns(int[] memory){\n        uint count = 0;\n        uint policyLength = policyList.length;\n        int[] memory index = new int[](policyLength);\n        for(uint i = 0; i < policyLength; i++) {\n            if(keccak256(abi.encodePacked(sa.name)) != keccak256(abi.encodePacked(\"*\")) && keccak256(abi.encodePacked(sa.name)) != keccak256(abi.encodePacked(policyList[i].subject.attribute.name)) && keccak256(abi.encodePacked(policyList[i].subject.attribute.name)) != keccak256(abi.encodePacked(\"*\"))) {\n                continue;\n            }\n            if(keccak256(abi.encodePacked(sa.role)) != keccak256(abi.encodePacked(\"*\")) && keccak256(abi.encodePacked(sa.role)) != keccak256(abi.encodePacked(policyList[i].subject.attribute.role)) && keccak256(abi.encodePacked(policyList[i].subject.attribute.role)) != keccak256(abi.encodePacked(\"*\"))) {\n                continue;\n            }\n            if(keccak256(abi.encodePacked(oa.name)) != keccak256(abi.encodePacked(\"*\")) && keccak256(abi.encodePacked(oa.name)) != keccak256(abi.encodePacked(policyList[i].object.attribute.name)) && keccak256(abi.encodePacked(policyList[i].object.attribute.name)) != keccak256(abi.encodePacked(\"*\"))) {\n                continue;\n            }\n            if(keccak256(abi.encodePacked(oa.place)) != keccak256(abi.encodePacked(\"*\")) && keccak256(abi.encodePacked(oa.place)) != keccak256(abi.encodePacked(policyList[i].object.attribute.place)) && keccak256(abi.encodePacked(policyList[i].object.attribute.place)) != keccak256(abi.encodePacked(\"*\"))) {\n                continue;\n            }\n            index[count] = int(i);\n            count++;\n        }\n        if(count == 0) {\n            int[] memory arrayMemory = new int[](1);\n            arrayMemory[0] = -1;\n            return arrayMemory;\n        }\n        else{\n            int[] memory arrayMemory = new int[](count);\n            for(uint i = 0; i < count; i++){\n                arrayMemory[i] = index[i];\n            }\n            return arrayMemory;\n        }\n    }\n\n    function findExactMatchPolicy(SubjectAttribute calldata sa, ObjectAttribute calldata oa) public view returns(int) {\n        int index = -1;\n        uint policyLength = policyList.length;\n        for(uint i = 0; i < policyLength; i++) {\n            if(keccak256(abi.encodePacked(sa.name)) != keccak256(abi.encodePacked(policyList[i].subject.attribute.name))) {\n                continue;\n            }\n            if(keccak256(abi.encodePacked(sa.role)) != keccak256(abi.encodePacked(policyList[i].subject.attribute.role))) {\n                continue;\n            }\n            if(keccak256(abi.encodePacked(oa.name)) != keccak256(abi.encodePacked(policyList[i].object.attribute.name))) {\n                continue;\n            }\n            if(keccak256(abi.encodePacked(oa.place)) != keccak256(abi.encodePacked(policyList[i].object.attribute.place))) {\n                continue;\n            }\n            index = int(i);\n            break;\n        }\n        return index;\n    } \n\n\n}",
  "sourcePath": "/Users/rokurock/ACBF GRB/abacforethereum/contracts/PMC.sol",
  "compiler": {
    "name": "solc",
    "version": "0.8.19+commit.7dd6d404.Emscripten.clang"
  },
  "schemaVersion": "3.4.16",
  "updatedAt": "2024-02-28T09:24:11.591Z",
  "devdoc": {
    "kind": "dev",
    "methods": {},
    "version": 1
  },
  "userdoc": {
    "kind": "user",
    "methods": {},
    "version": 1
  }
}